:1000000032C1000061C100005FC100005DC100009D
:100010005BC1000059C1000057C1000055C100007C
:1000200053C1000051C100004FC100004DC100008C
:100030004BC1000049C1000047C1000045C100009C
:1000400043C1000041C100003FC100003DC10000AC
:100050003BC1000039C1000037C100000C94D3102F
:1000600033C100000C9499140C94CF142DC10000DE
:100070002BC1000029C1000027C1000025C10000DC
:1000800023C1000021C100001FC100001DC10000EC
:100090000C9425150C945B1517C1000015C10000C8
:1000A00013C1000011C100000FC100000DC100000C
:1000B0000BC1000009C1000007C1000005C100001C
:1000C00003C1000001C10000FFC000000C94B11585
:1000D0000C94E715F9C000000C943D160C947316AF
:1000E000F3C0000008000000BE922449123EABAAF3
:1000F000AA2ABECDCCCC4C3E00000080BEABAAAA42
:10010000AA3E00000000BF000000803F0000000089
:1001100000084178D3BB4387D1133D190E3CC3BDC2
:100120004282AD2B3E68EC8276BED98FE1A93E4C6F
:1001300080EFFFBE01C4FF7F3F0000000000000011
:100140000A0B02090C0D0E08070304010000000051
:10015000000000000000000000000000000000009F
:10016000000000000000000000001211100000005C
:10017000000000000000000000000000000000007F
:10018000000000000102102020080810204010206C
:10019000408002010201080402010102040810204B
:1001A0004080804020100804020180040201804049
:1001B00020100804020108040201010204081020B2
:1001C0004080010204081020408005050505070550
:1001D00008080808020202020A0A080804040404C3
:1001E00001010101010101010303030303030303EF
:1001F000040707070C0C0C0C0C0C0C0C020202027E
:1002000006060606060606060B0B0B0B0B0B0B0B66
:10021000000020002300260029002C002F003200BF
:100220000001000003010601090100002200250071
:1002300028002B002E0031003400020100000501CF
:1002400008010B0100002100240027002A002D00D6
:100250003000330001010000040107010A01F81415
:10026000841510169C1611241FBECFEFD1E2DEBFFD
:10027000CDBF00E00CBF12E0A0E0B2E0E6E7FEE296
:1002800000E00BBF02C007900D92A23AB107D9F768
:1002900026E0A2EAB2E001C01D92A936B207E1F75A
:1002A00011E0C3E3D1E000E006C021970109802FEF
:1002B000FE010E941817CF32D10780E00807A9F786
:1002C0000E942F0D0C9439179BCE0895CF92DF9288
:1002D000EF92FF92CF93882351F16A017B01CFEF18
:1002E000C80F20E030E0A901CB01B6010E94C90D82
:1002F00087FF11C0C701B60190580E943A0E9B01BA
:10030000AC016C2F70E090E080E0CF91FF90EF9017
:10031000DF90CF90B2C0C701B6010E94350E8C2F7E
:10032000CF91FF90EF90DF90CF900C94A411CF91DC
:10033000FF90EF90DF90CF9008950F931F938B0164
:100340009C0183E036952795179507958A95D1F7F7
:100350000E551D4F462F477021E030E0F90102C0D5
:10036000EE0FFF1F4A95E2F7AF01F8012081242329
:10037000CB010196211102C090E080E01F910F9106
:1003800008950F931F938B019C0183E03695279569
:10039000179507958A95D1F7677081E090E001C0C5
:1003A000880F6A95EAF7F801EE55FD4F2081452B3D
:1003B00031F48095822380831F910F910895822BC1
:1003C000FACF2F923F924F925F926F927F928F92CD
:1003D0009F92AF92BF92CF92DF92EF92FF920F93D4
:1003E0001F93CF93DF93D62EC72E782E692E490107
:1003F0005A01280161E08D2D0E94DE12CD2DDC2DE9
:100400008E010F5F1F4FA8016D2D7C2D872D962D1E
:10041000B8DF20E030E0A901C201B7010E94B90FA6
:10042000181664F4C201B7010E943A0E2B01C501EF
:10043000B4010E943A0EA201CE0123D0C801DF917F
:10044000CF911F910F91FF90EF90DF90CF90BF90D1
:10045000AF909F908F907F906F905F904F903F9064
:100460002F900895882341F08150682F70E090E02C
:1004700080E050E040E085CF0895862FB9010C94CC
:10048000A4119C01FC01E25CFE4FE491E150E231D9
:10049000E0F4F0E08827E05BFD4F8F4F0C941817D5
:1004A000620269026C02830298026502AD02B9021F
:1004B000BD02D402E902FE0215032A0365023F03CE
:1004C00056036B0384B5806884BD60E0822F0C9472
:1004D0001A1384B58062F8CF809180008C7F82608F
:1004E0008093800080918100807E8061682B609382
:1004F000810050938700409386008091800080683F
:1005000080938000E2CF809180008C7F8260809316
:10051000800080918100807E8061682B60938100E3
:100520005093870040938600809180008062E8CFDE
:10053000809180008C7F8260809380008091810018
:10054000807E8061682B6093810050938700409388
:100550008600809180008860D3CF8091B000806851
:100560008093B0008091B100887F682B6093B100C8
:10057000ACCF8091B0008062F3CF809190008C7FEF
:1005800082608093900080919100807E8061682BD2
:100590006093910050939700409396008091900053
:1005A00080688093900091CF809190008C7F8260D2
:1005B0008093900080919100807E8061682B609391
:1005C0009100509397004093960080919000806234
:1005D000E8CF809190008C7F826080939000809122
:1005E0009100807E8061682B60939100509397000A
:1005F00040939600809190008860D3CF8091A000B6
:100600008C7F82608093A0008091A100807E8061B9
:10061000682B6093A1005093A7004093A60080919F
:10062000A00080688093A00050CF8091A0008C7FB4
:1006300082608093A0008091A100807E8061682B01
:100640006093A1005093A7004093A6008091A00062
:100650008062E8CF8091A0008C7F82608093A000B0
:100660008091A100807E8061682B6093A1005093EF
:10067000A7004093A6008091A0008860D3CF80910E
:1006800020018C7F82608093200180912101807EF7
:100690008061682B609321015093270140932601CC
:1006A000809120018068809320010FCF80912001EC
:1006B0008C7F82608093200180912101807E806107
:1006C000682B60932101509327014093260180916C
:1006D00020018062E8CF809120018C7F826080932E
:1006E000200180912101807E8061682B609321012F
:1006F0005093270140932601809120018860D3CF39
:10070000611102C00C94DE126130E1F362E0FACFB5
:10071000662319F061E00C941A1360E0FCCF0E948C
:10072000471321E0019709F020E0822F0895CF932D
:10073000DF93EC0189819A81AB81BC810197A1058E
:10074000B105C1F48D818823A9F06A857B858C85EC
:100750009D85F3DD9987888740E050E0BA01B6DDDA
:100760006A857B858C859D85E8DD99878887DF9103
:10077000CF9178CEDF91CF9108952F923F924F92F3
:100780005F926F927F928F929F92AF92BF92CF9221
:10079000DF92EF92FF920F931F93CF93DF9300D0DE
:1007A00000D000D01F92CDB7DEB74B015C015A8755
:1007B00049871901E982FA820B831C83AC019B01F2
:1007C000A985BA856D917D918D919C910E94B90FFB
:1007D00087FFB6C0E981FA81EE0FFF1FEE0FFF1F02
:1007E00029853A85E20FF31FA5019401608171818B
:1007F000828193810E94B90F18160CF051C0270115
:1008000038017694679457944794D801C7018D8333
:100810009E83AF83B887C12CD12C76018D819E81B8
:10082000AF81B8858C199D09AE09BF090297A10552
:10083000B10508F05BC0C601880F991F880F991F8A
:10084000E985FA85E80FF91FFE83ED83408051802A
:1008500062807380A3019201C501B4010E94640DFE
:100860004B015C01A3019201AD81BE8114966D9193
:100870007D918D919C9117970E94640D9B01AC0115
:10088000C501B4010E94CD0D4B015C0189819A81A3
:10089000AB81BC81C816D906EA06FB0609F057C031
:1008A000C980DA80CC0CDD1CCC0CDD1CC20CD31C46
:1008B000D6016D917D918D919C912A960FB6F894F9
:1008C000DEBF0FBECDBFDF91CF911F910F91FF9083
:1008D000EF90DF90CF90BF90AF909F908F907F90E0
:1008E0006F905F904F903F902F900895F201EE0F20
:1008F000FF1FEE0FFF1FA985BA85EA0FFB1FA50199
:10090000940160817181828193810E94B90F1816D0
:1009100034F0730162014D805E806F807884D30172
:10092000C2018C0D9D1DAE1DBF1D4D825E826F826A
:1009300078862C013D0176946794579447946ECF46
:10094000C12CD12C7601812C912C54019FCFBFEF6B
:10095000CB1ADB0ACC0CDD1CCC0CDD1C2C0C3D1C9A
:10096000F1013497C080D180E280F380A701960125
:10097000F10160817181828193810E94640DA501E2
:1009800094010E940210A70196010E94650D95CF67
:100990002F923F924F925F927F928F929F92AF924F
:1009A000BF92CF92DF92EF92FF920F931F93CF935C
:1009B000DF9300D01F92CDB7DEB75C01762E5A834D
:1009C00049836901FC82EB82662309F46DC0F7015B
:1009D0008081813009F468C0F50166817781808566
:1009E00091850E94660E20E030E040E85FE40E94BE
:1009F00002101B012C01F5016281738184819581B4
:100A00000E94660E9B01AC01C201B1010E94650DFE
:100A10002FE632E143E85AE30E9402101B012C0149
:100A2000F60120813181428153810E94640D9B0136
:100A3000AC01F80164817581868197810E94CD0D9A
:100A40000E94A30E4B015C017CD7811146C0C501F9
:100A5000B4010BD7811141C020E030E040E85FE4F1
:100A6000C501B4010E94BD0E4B015C0120E030E0E5
:100A7000A9010E94C90D87FF33C0C501B401905878
:100A80000E943A0E90958095709561957F4F8F4F9B
:100A90009F4FE981FA816083718382839383F6019A
:100AA0002082318242825382EB81FC8170820F90DE
:100AB0000F900F900F90DF91CF911F910F91FF90AA
:100AC000EF90DF90CF90BF90AF909F908F907F90EE
:100AD0005F904F903F902F900895812C912C54015E
:100AE000C501B4010E943A0ED4CF8F929F92AF926B
:100AF000BF92CF92DF92EF92FF92CF93DF93EC0100
:100B0000688179818A819B812DE133EF41E050E05A
:100B10000E94F61649015A019B01AC01A7EAB1E413
:100B20000E9420176B017C01A4E1BBE0A5019401A8
:100B30000E942017C616D706E806F90634F421E00D
:100B4000C21AD108E10820E8F20AC61AD70AE80A50
:100B5000F90AC882D982EA82FB82688179818A8116
:100B60009B810E94660E20E030E040E050E30E944E
:100B70000210DF91CF91FF90EF90DF90CF90BF9068
:100B8000AF909F908F9008954F925F926F927F9257
:100B90008F929F92AF92BF92CF92DF92EF92FF928D
:100BA000CF93DF93EC01CE01A0DF9B01AC018DD789
:100BB00020E030E040E85FE387D76093350670932C
:100BC00036068093370690933806CE018EDF9B0160
:100BD000AC017BD720E030E040E85FE375D76B01E4
:100BE0007C018090350690903606A0903706B09034
:100BF0003806A5019401C501B4010E9402102B0121
:100C00003C01A7019601C701B6010E9402109B0199
:100C1000AC01C301B20159D76B017C01C092390606
:100C2000D0923A06E0923B06F0923C0620E030E09B
:100C300040E85FE30E94B90F18160CF4B4CFC70167
:100C4000B6010E94C20F20E030E040E050EC0E946C
:100C50000210A7019601A1D70E9469109B01AC0167
:100C6000C501B4010E940210DF91CF91FF90EF9077
:100C7000DF90CF90BF90AF909F908F907F906F90BC
:100C80005F904F9008954F925F926F927F928F92F4
:100C90009F92AF92BF92CF92DF92EF92FF920F930B
:100CA0001F93CF93DF9300D000D000D01F92CDB719
:100CB000DEB78090240290902502A0902602B0908A
:100CC00027028091280290912902A0912A02B091D6
:100CD0002B0289839A83AB83BC839C01AD01C50140
:100CE000B401F3D62B013C0112E0E12EF12C00E01F
:100CF00010E02CE232E048E352E03FDD20910906AB
:100D000030910A0640910B0650910C06DED62091D8
:100D10004402309145024091460250914702D5D697
:100D2000209148023091490240914A0250914B0271
:100D30000E94021020911106309112064091130674
:100D400050911406C2D66D837E838F839887298144
:100D50003A814B815C81C501B401B6D64B015C017F
:100D600020E532E04CE552E008DD20910D0630919F
:100D70000E0640910F0650911006A7D620916802EA
:100D80003091690240916A0250916B029ED6209187
:100D90006C0230916D0240916E0250916F020E9480
:100DA00002102091150630911606409117065091B9
:100DB00018068BD669837A838B839C83C090040248
:100DC000D0900502E0900602F0900702A70196017C
:100DD0006091590570915A0580915B0590915C0571
:100DE000D8D6882341F0C0925905D0925A05E09296
:100DF0005B05F0925C0588E092DC23E3E22E25E0BF
:100E0000F22E0DE712E029E236E04DE356E0682FBE
:100E100085E496E0BDDDC0900002D0900102E09034
:100E20000202F0900302A70196016091650570919E
:100E300066058091670590916805ABD6882341F0DF
:100E4000C0926505D0926605E0926705F09268054C
:100E500089E065DC94E3E92E95E0F92E05E812E0DF
:100E60002DE236E041E456E0682F85E496E090DD1F
:100E7000809178028823D1F06D817E818F81988561
:100E800062D76B017C0143D5811103C0C701B60154
:100E900015D569817A818B819C8155D76B017C0145
:100EA00036D5811103C0C701B60108D560913F0551
:100EB0007091400580914105909142053EDA9A87F4
:100EC000898790933E0580933D0520917002309173
:100ED00071024091720250917302C301B2010E94EB
:100EE00002106B017C0120E030E04FE753E451D663
:100EF00087FF18C1C0923106D0923206E0923306C5
:100F0000F092340620E030E0A90160913106709142
:100F1000320680913306909134060E94B90F18165C
:100F200044F010923106109232061092330610925D
:100F3000340640913106509132066091330670912B
:100F4000340689859A85C2D960914D0570914E0508
:100F500080914F0590915005F0D97C0190934C05FC
:100F600080934B0520917402309175024091760276
:100F700050917702C501B4010E9402104B015C013F
:100F800020E030E04FE753E404D687FFD8C08092DA
:100F9000310690923206A0923306B092340620E0D9
:100FA00030E0A901609131067091320680913306DC
:100FB00090913406DED7181644F010923106109244
:100FC0003206109233061092340640913106509149
:100FD00032066091330670913406C70177D960916B
:100FE000790284E095DB60917A0285E091DB609183
:100FF0007B0282E08DDB60917C0283E089DB8D8166
:101000009E81AF81B8858093110690931206A093BC
:101010001306B093140689E196E0B6DD20910C0228
:1010200030910D0240910E0250910F02EBD72091AA
:1010300008023091090240910A0250910B0245D5F5
:101040006093090670930A0680930B0690930C0632
:1010500089819A81AB81BC81809315069093160695
:10106000A0931706B09318068DE196E08DDD2091D0
:1010700018023091190240911A0250911B02C2D7F6
:1010800020911402309115024091160250911702DE
:101090001CD560930D0670930E0680930F069093F7
:1010A00010068091470690914806A0914906B0919C
:1010B0004A060196A11DB11D8093470690934806EC
:1010C000A0934906B0934A06892B8A2B8B2B99F45F
:1010D00080914B0690914C06A0914D06B0914E0622
:1010E0000196A11DB11D80934B0690934C06A093D1
:1010F0004D06B0934E062A960FB6F894DEBF0FBE8B
:10110000CDBFDF91CF911F910F91FF90EF90DF90B6
:10111000CF90BF90AF909F908F907F906F905F9097
:101120004F90089580E090E0AFE7B3E480933106FC
:1011300090933206A0933306B0933406E3CE80E05A
:1011400090E0AFE7B3E48093310690933206A0932A
:101150003306B093340623CF2F923F924F925F9283
:101160006F927F928F929F92AF92BF92CF92DF92B7
:10117000EF92FF920F931F93CF93DF9384E090E061
:101180003DD3E5E4F6E08AE0DF011D928A95E9F7B8
:10119000E1E3F6E084E1DF011D928A95E9F7E5E3FA
:1011A000F5E08CEFDF011D928A95E9F7C1E0C0936D
:1011B00021068091040290910502A0910602B0914F
:1011C00007028093590590935A05A0935B05B0934D
:1011D0005C05812C912C540183948092520590924D
:1011E0005305A0925405B092550560E088E088DA76
:1011F000C093560510925D05C093220680910002AF
:1012000090910102A0910202B091030280936505C2
:1012100090936605A0936705B093680580925E057C
:1012200090925F05A0926005B092610560E089E050
:1012300067DAC093620510923505C0932706B2E3C2
:10124000CB2EC0927905D3E3DD2ED0927A0514E33C
:10125000212E20927B0505E3302E30927C0586E31B
:10126000482E40927D0597E3592E50927E0528E343
:10127000622E60927F0539E3732E70928005D1E370
:10128000D0938105B0E3B0938205D0938305D093CA
:101290008405D0938505C0928605D0938705D092AA
:1012A000880589E795E090933C0580933B058AE0AB
:1012B00090E0A0E0B0E080933F0590934005A093BC
:1012C0004105B093420510923A05809236059092FE
:1012D0003705A0923805B0923905E12CF12C870131
:1012E000A80197016AE070E080E090E06AD89093EE
:1012F0003E0580933D0560913F05709140058091CA
:1013000041059091420519D890933E0580933D0583
:101310000E946501C0933A0510924305C0932806C8
:10132000C092B905D092BA052092BB053092BC0597
:101330004092BD055092BE056092BF057092C005F7
:10134000D093C10500E30093C205D093C305D093A9
:10135000C405D093C505C092C605D093C705D092E9
:10136000C80589EB95E090934A05809349058BE089
:1013700090E0A0E0B0E080934D0590934E05A093DF
:101380004F05B09350051092480580924405909205
:101390004505A0924605B0924705E12CF12C870146
:1013A000A80197016BE070E080E090E00AD890938C
:1013B0004C0580934B0560914D0570914E058091D1
:1013C0004F05909150050E949D0190934C0580938C
:1013D0004B050E946501C09348051092E905C09332
:1013E00023068092EA059092EB05A092EC05B0925C
:1013F000ED0561E084E084D9C093EE051092F1051B
:10140000C09324068092F2059092F305A092F40511
:10141000B092F50561E085E073D9C093F6051092AE
:10142000F905C09325068092FA059092FB05A092DB
:10143000FC05B092FD0561E082E062D9C093FE0533
:1014400010920106C093260680920206909203062F
:10145000A0920406B092050661E083E051D9C093E2
:101460000606C0933305C093340580912002909105
:101470002102A0912202B091230280931106909341
:101480001206A0931306B093140660911002709197
:101490001102809112029091130255D44B015C010C
:1014A00050D2811130C1C501B401DFD181112BC1EE
:1014B00020E030E040E85FE4C501B4015ED44B01B8
:1014C0005C01A801970165D387FF20C1C501B40164
:1014D0009058D0D38B019C0144275527BA01401B5B
:1014E000510B620B730B4A01882410E89122B12C36
:1014F000A12CDB01CA01880D991DAA1DBB1DDC01B1
:1015000099278827AB0166277727480D591D6A1D43
:101510007B1D840F951FA61FB71F0097A105B1055E
:1015200009F4FAC08F3F2FEF9207A2072FE7B20707
:1015300020F08EEF9FEFAFEFBFE7809319069093F7
:101540001A06A0931B06B0931C0689E196E01CDBEB
:1015500020910C0230910D0240910E0250910F0229
:1015600051D5209108023091090240910A02509110
:101570000B02ABD26093090670930A0680930B06A8
:1015800090930C0680914C0290914D02A0914E02D6
:10159000B0914F028093150690931606A0931706FC
:1015A000B093180660911C0270911D0280911E027A
:1015B00090911F02C8D34B015C01C3D18111B1C00E
:1015C000C501B40152D18111ACC020E030E040E847
:1015D0005FE4C501B401D1D34B015C0120E030E0F0
:1015E000A901D7D287FFA0C0C501B401905842D34A
:1015F0008B019C0144275527BA01401B510B620BFC
:10160000730B4A01882410E89122B12CA12CDB0134
:10161000CA01880D991DAA1DBB1DDC0199278827C9
:10162000AB0166277727480D591D6A1D7B1D840F66
:10163000951FA61FB71F0097A105B10509F47AC031
:101640008F3F2FEF9207A2072FE7B20720F08EEF10
:101650009FEFAFEFBFE780931D0690931E06A09308
:101660001F06B09320068DE196E08EDA20911802D5
:101670003091190240911A0250911B02C3D420915B
:1016800014023091150240911602509117021DD29A
:1016900060930D0670930E0680930F0690931006CC
:1016A00080917D0290917E02A0917F02B091800294
:1016B0008093290690932A06A0932B06B0932C06BC
:1016C0008091850290918602A0918702B091880254
:1016D00080932D0690932E06A0932F06B09330068C
:1016E000DF91CF911F910F91FF90EF90DF90CF90FE
:1016F000BF90AF909F908F907F906F905F904F9032
:101700003F902F900895812C912C5401C501B40174
:10171000B1D2AB01BC01E7CE82E897EBA1E3B4E420
:101720000CCF812C912C5401C501B401A3D2AB0183
:10173000BC0167CF82E897EBA1E3B4E48CCF809142
:101740005105811103C081E08093510580915D05B1
:10175000811103C081E080935D0580913505811181
:1017600007C081E08093350585E395E00E949703EB
:1017700080914305811107C081E08093430583E494
:1017800095E00E9497038091E905811103C081E0F3
:101790008093E9058091F105811103C081E0809378
:1017A000F1058091F905811103C081E08093F9056D
:1017B00080910106811103C081E0809301060895A4
:1017C00060E070E080E89FE7089560E070E080E806
:1017D0009FE7089560E070E080E89FEF089560E083
:1017E00070E080E89FEF089560E070E080EC9FEF8C
:1017F000089560E070E080EC9FEF0895F5DF60935E
:101800005B0670935C0680935D0690935E06F1DF45
:1018100060934F0670935006809351069093520642
:10182000CFDF6093570670935806809359069093C4
:101830005A06CBDF60935306709354068093550687
:1018400090935606C7DF60935F067093600680939F
:10185000610690936206C3DF60936306709364062B
:1018600080936506909366060895CF92DF92EF927B
:10187000FF92CF936B017C01AC019B0160915706F5
:10188000709158068091590690915A0682D1C1E014
:10189000882369F0A701960160915F067091600648
:1018A000809161069091620674D18111C0E08C2F05
:1018B000CF91FF90EF90DF90CF900895CF92DF927D
:1018C000EF92FF92CF936B017C01AC019B01609181
:1018D000530670915406809155069091560659D141
:1018E000C1E0882369F0A7019601609163067091B9
:1018F000640680916506909166064BD18111C0E027
:101900008C2FCF91FF90EF90DF90CF9008950F93A1
:101910001F938B019C010027112720783F77011529
:10192000110520483F4749F4AB01BC016F77772789
:1019300081E0452B462B472B09F480E01F910F9146
:101940000895E5CF40E855E260E070E090E080E087
:1019500000C08130910571F01CF4892B39F0089595
:101960008230910559F0039769F0089526E08FEBD6
:1019700092E07FC726E08CE593E0FBCF26E089EF7D
:1019800093E0F7CF26E086E994E0F3CF0895CF9275
:10199000DF92EF92FF920F931F934FD46093AB02AD
:1019A0007093AC028093AD029093AE020091AF02AF
:1019B0001091B0022091B1023091B2026B017C0112
:1019C000C01AD10AE20AF30A97018601083E1340C1
:1019D0002105310508F16093AF027093B002809346
:1019E000B1029093B20225D028D40091AF02109199
:1019F000B0022091B1023091B202601B710B820BD8
:101A0000930B683E73408105910570F081E090E092
:101A10009093B5028093B40281E01F910F91FF90E3
:101A2000EF90DF90CF9008951092B5021092B4021B
:101A3000F3CF8091B30291E0980F9093B302882383
:101A400049F021E030E03093B5022093B402809356
:101A5000B302089518D98091B3028150F8CFCF9383
:101A6000DF9310926806109267060CD46BDFC0916A
:101A70008D02D0918E02198218826EDB87DF81E0A1
:101A800028813981232B09F080E0809367067894C0
:101A900080916706811107C052DEF89490E080E0E3
:101AA000DF91CF91089581E028813981232B09F4BA
:101AB00080E0809368069091680681E0911180E053
:101AC0008093670664DFE4CF5058BB27AA270ED067
:101AD000FFC1F0D130F0F5D120F031F49F3F11F487
:101AE0001EF4E5C10EF4E095E7FBB2C1E92F01D287
:101AF00080F3BA17620773078407950718F071F42B
:101B00009EF530C20EF4E0950B2EBA2FA02D0B01DE
:101B1000B90190010C01CA01A0011124FF27591B32
:101B200099F0593F50F4503E68F11A16F040A22F38
:101B3000232F342F4427585FF3CF469537952795A9
:101B4000A795F0405395C9F77EF41F16BA0B620BA8
:101B5000730B840BBAF09150A1F0FF0FBB1F661FEF
:101B6000771F881FC2F70EC0BA0F621F731F841F32
:101B700048F4879577956795B795F7959E3F08F058
:101B8000B3CF9395880F08F09927EE0F9795879517
:101B900008953AD108F481E008950CD099C191D10B
:101BA00040F088D130F021F45F3F19F051C151115C
:101BB000DAC17DC19ED198F39923C9F35523B1F3BE
:101BC000951B550BBB27AA2762177307840738F0AC
:101BD0009F5F5F4F220F331F441FAA1FA9F333D00B
:101BE0000E2E3AF0E0E830D091505040E695001CBF
:101BF000CAF729D0FE2F27D0660F771F881FBB1F7B
:101C0000261737074807AB07B0E809F0BB0B802D54
:101C1000BF01FF2793585F4F2AF09E3F510568F0A0
:101C200017C1A1C15F3FECF3983EDCF38695779531
:101C30006795B795F7959F5FC9F7880F911D9695A2
:101C4000879597F90895E1E0660F771F881FBB1FFE
:101C5000621773078407BA0720F0621B730B840BAB
:101C6000BA0BEE1F88F7E095089504D06894B1117F
:101C70007AC1089546D188F09F5790F0B92F9927DF
:101C8000B751A0F0D1F0660F771F881F991F1AF087
:101C9000BA95C9F712C0B13081F064D1B1E00895AE
:101CA00061C1672F782F8827B85F39F0B93FCCF32F
:101CB000869577956795B395D9F73EF4909580957D
:101CC000709561957F4F8F4F9F4F0895E89409C09D
:101CD00097FB3EF490958095709561957F4F8F4F5F
:101CE0009F4F9923A9F0F92F96E9BB279395F69575
:101CF000879577956795B795F111F8CFFAF4BB0FF3
:101D000011F460FF1BC06F5F7F4F8F4F9F4F16C056
:101D1000882311F096E911C0772321F09EE8872FE0
:101D2000762F05C0662371F096E8862F70E060E09C
:101D30002AF09A95660F771F881FDAF7880F969515
:101D4000879597F90895F7D080F09F3740F4911167
:101D50000EF009C160E070E080E89FEB089526F482
:101D60001B16611D711D811D79C093C0A3D018F091
:101D700011F0A7D038F49BC0F6C0E92FBAD0B0F369
:101D80005523C9F3E7FB6217730784079507A8F18A
:101D900099F3E92FFF2788232AF03197660F771FE1
:101DA000881FDAF7952F5527442332F09150504081
:101DB000220F331F441FD2F7BB27E91BF50B621B11
:101DC000730B840BB109C1F222F4620F731F841FDD
:101DD000B11D31972AF0660F771F881FBB1FEFCF09
:101DE000915050405AF041F0882332F0660F771F2F
:101DF000881F91505040C1F793954BC086957795B9
:101E000067959F5FD9F7F8CF990F0008550FAA0B78
:101E1000E0E8FEEF16161706E807F907C0F01216FD
:101E20001306E407F50798F0621B730B840B950B00
:101E300039F40A2661F0232B242B252B21F4089555
:101E40000A2609F4A140A6958FEF811D811D0895F2
:101E500097F99F6780E870E060E00895882371F447
:101E6000772321F09850872B762F07C0662311F433
:101E700099270DC09051862B70E060E02AF09A956A
:101E8000660F771F881FDAF7880F9695879597F961
:101E900008959F3F31F0915020F48795779567958D
:101EA000B795880F911D9695879597F908959FEF9F
:101EB00080EC089500240A941616170618060906E1
:101EC000089500240A9412161306140605060895B0
:101ED000092E0394000C11F4882352F0BB0F40F438
:101EE000BF2B11F460FF04C06F5F7F4F8F4F9F4F78
:101EF000089557FD9058440F551F59F05F3F71F0FA
:101F00004795880F97FB991F61F09F3F79F0879560
:101F10000895121613061406551FF2CF4695F1DFE9
:101F200008C0161617061806991FF1CF8695710579
:101F3000610508940895E5DFA0F0BEE7B91788F4BD
:101F4000BB279F3860F41616B11D672F782F88279E
:101F5000985FF7CF869577956795B11D93959639DC
:101F6000C8F30895E894BB2766277727CB0197F934
:101F700008954ADF08F48FEF08950EF08ACF97CFC7
:101F8000689466CFBEDFC8F39923D1F3C6F3DF931D
:101F9000CF931F930F93FF92C92FDD2788232AF039
:101FA0002197660F771F881FDAF720E030E040E8BE
:101FB0005FEB9FE3883920F0803E30F021968F77E9
:101FC00084DDE4EEF0E003C080DDE1E1F1E0C6D0C5
:101FD0008B01BE01EC01FB2E6F5771097595771FC0
:101FE000880B990B75DE28E132E741E35FE316D0F9
:101FF000AF2D9801AE01FF900F911F91CF91DF910E
:1020000075DD66CF0BD064CF55DF28F05ADF18F0AE
:10201000952309F01DCF4BCF1124A5CF6ADFA0F384
:10202000959FD1F3950F50E0551F629FF001729F6D
:10203000BB27F00DB11D639FAA27F00DB11DAA1F8C
:10204000649F6627B00DA11D661F829F2227B00DD9
:10205000A11D621F739FB00DA11D621F839FA00D64
:10206000611D221F749F3327A00D611D231F849FB4
:10207000600D211D822F762F6A2F11249F5750400B
:102080008AF0E1F088234AF0EE0FFF1FBB1F661FA6
:10209000771F881F91505040A9F79E3F510570F05F
:1020A000D7CE61CF5F3FECF3983EDCF38695779512
:1020B0006795B795F795E7959F5FC1F7FE2B880F5A
:1020C000911D9695879597F9089511F40EF4EFCE2A
:1020D000E0CE17DFD0F39923D9F3CEF39F57550BFA
:1020E00087FF35D00024A0E640EA9001805856953D
:1020F000979528F4805C660F771F881F20F02617BD
:102100003707480730F4621B730B840B20293129F1
:102110004A2BA69517940794202531254A2758F76E
:10212000660F771F881F20F026173707480730F4FF
:10213000620B730B840B200D311D411DA09581F79F
:10214000B901842F9158880F9695879508959150DD
:102150005040660F771F881FD2F70895DF93CF9303
:102160001F930F93FF92EF92DF927B018C01689493
:1021700005C0DA2EEF0152DFFE01E894A59125910A
:10218000359145915591AEF3EF01B0DCFE01970119
:10219000A801DA9479F7DF90EF90FF900F911F91EB
:1021A000CF91DF9108951F920F920FB60F921124D5
:1021B0002F933F938F939F93AF93BF938091B702D9
:1021C0009091B802A091B902B091BA023091B602D2
:1021D00023E0230F2D3758F50196A11DB11D209343
:1021E000B6028093B7029093B802A093B902B0935D
:1021F000BA028091BB029091BC02A091BD02B09145
:10220000BE020196A11DB11D8093BB029093BC023A
:10221000A093BD02B093BE02BF91AF919F918F91E9
:102220003F912F910F900FBE0F901F90189526E8A9
:10223000230F0296A11DB11DD2CF3FB7F894809114
:10224000BB029091BC02A091BD02B091BE0226B526
:10225000A89B05C02F3F19F00196A11DB11D3FBFDE
:10226000BA2FA92F982F8827BC01CD01620F711DAD
:10227000811D911D42E0660F771F881F991F4A95A7
:10228000D1F70895789484B5826084BD84B5816067
:1022900084BD85B5826085BD85B5816085BDEEE66E
:1022A000F0E0808181608083E1E8F0E0108280814D
:1022B00082608083808181608083E0E8F0E08081BB
:1022C00081608083E1EBF0E0808184608083E0EBDB
:1022D000F0E0808181608083E1E9F0E080818260CC
:1022E0008083808181608083E0E9F0E0808181608B
:1022F0008083E1EAF0E08081826080838081816078
:102300008083E0EAF0E0808181608083E1E2F1E0B7
:10231000808182608083808181608083E0E2F1E05F
:10232000808181608083EAE7F0E08081846080833F
:1023300080818260808380818160808380818068E9
:1023400080831092C10008951F93CF93DF93182FBD
:10235000EB0161E033D1209731F460E0812FDF9110
:10236000CF911F9167C1CF3FD10511F461E0F6CF46
:10237000E12FF0E0E25CFE4FE491E150E23108F041
:10238000B2C0F0E08827E953FE4E8F4F51C5D911F6
:10239000E111E611F011FA11731204120C12141269
:1023A0001E122812321241124B12731255125F1272
:1023B000691284B5806884BDC7BDDF91CF911F913C
:1023C000089584B5806284BDC8BDF7CF8091800038
:1023D000806880938000D0938900C0938800EDCFFF
:1023E00080918000806280938000D0938B00C093A6
:1023F0008A00E3CF80918000886080938000D09332
:102400008D00C0938C00D9CF8091B00080688093FC
:10241000B000C093B300D1CF8091B00080628093B0
:10242000B000C093B400C9CF8091900080688093C1
:102430009000D0939900C0939800BFCF80919000F6
:10244000806280939000D0939B00C0939A00B5CF98
:1024500080919000886080939000D0939D00C093FD
:102460009C00ABCF8091A00080688093A0008091F9
:10247000A0008F7B8093A000D093A900C093A800F8
:102480009CCF8091A00080628093A000D093AB008D
:10249000C093AA0092CF8091A00088608093A00092
:1024A000D093AD00C093AC0088CF809120018068AC
:1024B00080932001D0932901C09328017ECF809181
:1024C0002001806280932001D0932B01C0932A01C8
:1024D00074CF80912001886080932001D0932D01DA
:1024E000C0932C016ACFC038D1050CF03FCF35CF57
:1024F0008150823108F059C0E82FF0E08827ED576D
:10250000FD4E8F4F95C4A312A71295129B129F12D6
:10251000D512AA12B012B412BA12BE12C212C81246
:10252000CC12D512D012D612DA12809180008F7799
:10253000809380000895809180008F7DF9CF8091F5
:102540008000877FF5CF84B58F7784BD089584B5EB
:102550008F7DFBCF8091B0008F778093B00008957E
:102560008091B0008F7DF9CF809190008F7780931C
:1025700090000895809190008F7DF9CF8091900018
:10258000877FF5CF8091A0008F778093A00008957A
:102590008091A0008F7DF9CF8091A000877FF5CF3B
:1025A000809120018F7780932001089580912001F0
:1025B0008F7DF9CF80912001877FF5CFCF93DF9377
:1025C00090E0FC01EC57FE4F249186539E4FFC0196
:1025D00084918823C9F090E0880F991FFC01EC5B7F
:1025E000FD4FA591B491FC01E65DFD4FC591D491DD
:1025F00061110DC09FB7F8948C91209582238C9324
:102600008881282328839FBFDF91CF91089562306E
:1026100051F49FB7F8943C91822F809583238C933B
:10262000E8812E2BEFCF8FB7F894EC912E2B2C93C3
:102630008FBFEACF1F93CF93DF93282F30E0F901AC
:10264000E25CFE4F8491F901EC57FE4FD491F90101
:10265000E653FE4FC491CC23A1F0162F811148DF21
:10266000EC2FF0E0EE0FFF1FE65DFD4FA591B4915A
:102670008FB7F894EC91111108C0D095DE23DC934C
:102680008FBFDF91CF911F910895DE2BF8CFCF93AD
:10269000DF93282F30E0F901E25CFE4F8491F901CD
:1026A000EC57FE4FD491F901E653FE4FC491CC2371
:1026B00099F081111DDFEC2FF0E0EE0FFF1FE05FBE
:1026C000FD4FA591B491EC91ED2381E090E009F4E8
:1026D00080E0DF91CF91089580E090E0FACFFC0197
:1026E000918D228D892F90E0805C9F4F821B9109F4
:1026F0008F7399270895FC01918D828D981731F081
:10270000828DE80FF11D858D90E008958FEF9FEF8A
:102710000895FC01918D828D981761F0A28DAE0F06
:10272000BF2FB11D5D968C91928D9F5F9F73928F8D
:1027300090E008958FEF9FEF0895FC01538D448D35
:10274000252F30E0842F90E0821B930B541710F05C
:10275000CF96089501970895FC01A48DA80FB92F75
:10276000B11DA35ABF4F2C91848D90E001968F73B9
:102770009927848FA689B7892C93A089B1898C91D8
:10278000837080648C93938D848D981306C0028827
:10279000F389E02D80818F7D80830895CF93DF932F
:1027A000EC01888D8823B1F0AA89BB89E889F98971
:1027B0008C9185FD03C0808186FD0CC00FB607FC9F
:1027C000F7CF8C9185FFF2CF808185FFEDCFCE01D1
:1027D000C3DFEACFDF91CF910895EF92FF920F937D
:1027E0001F93CF93DF93EC0181E0888F9B8D8C8DBD
:1027F00098131AC0E889F989808185FF15C09FB7B1
:10280000F894EE89FF896083E889F9898081837073
:10281000806480839FBF81E090E0DF91CF911F9122
:102820000F91FF90EF900895F62E0B8D10E00F5F43
:102830001F4F0F731127E02E8C8D8E110BC00FB61A
:1028400007FCFACFE889F989808185FFF5CFCE01B1
:1028500083DFF2CFEB8DEC0FFD2FF11DE35AFF4F1D
:10286000F0829FB7F8940B8FEA89FB8980818062A0
:10287000D0CFCF92DF92EF92FF921F93CF93DF934F
:10288000EC016A017B01122FE889F98982E08083DB
:10289000C11481EED806E104F10499F060E079E01A
:1028A0008DE390E0A7019601A1D2215031094109A1
:1028B00051095695479537952795211580E1380799
:1028C00090F0E889F989108260E874E88EE190E080
:1028D000A70196018BD22150310941095109569522
:1028E000479537952795EC85FD853083EE85FF85E7
:1028F0002083188EEC89FD891083EA89FB89808109
:1029000080618083EA89FB89808188608083EA898D
:10291000FB89808180688083EA89FB8980818F7D43
:102920008083DF91CF911F91FF90EF90DF90CF9048
:1029300008951F920F920FB60F9211240BB60F92AB
:102940002F938F939F93EF93FF93E091CF02F0919A
:10295000D0028081E091D502F091D60282FD1DC0A7
:1029600090818091D8028F5F8F732091D902821756
:1029700041F0E091D802F0E0E154FD4F958F809353
:10298000D802FF91EF919F918F912F910F900BBEE5
:102990000F900FBE0F901F9018958081F2CF1F925D
:1029A0000F920FB60F9211240BB60F922F933F93F5
:1029B0004F935F936F937F938F939F93AF93BF9347
:1029C000EF93FF938FEB92E0C7DEFF91EF91BF9102
:1029D000AF919F918F917F916F915F914F913F91B7
:1029E0002F910F900BBE0F900FBE0F901F90189558
:1029F000EFEBF2E01382128288EE93E0A0E0B0E009
:102A000084839583A683B78383E992E0918380834F
:102A100085EC90E09587848784EC90E097878687A3
:102A200080EC90E0918B808B81EC90E0938B828B9B
:102A300082EC90E0958B848B86EC90E0978B868B74
:102A4000118E128E138E148E08951F920F920FB650
:102A50000F9211240BB60F922F938F939F93EF93A6
:102A6000FF93E0916C03F0916D038081E09172031C
:102A7000F091730382FD1DC09081809175038F5F7B
:102A80008F7320917603821741F0E0917503F0E097
:102A9000E45AFC4F958F80937503FF91EF919F91BE
:102AA0008F912F910F900BBE0F900FBE0F901F9024
:102AB00018958081F2CF1F920F920FB60F921124BA
:102AC0000BB60F922F933F934F935F936F937F9328
:102AD0008F939F93AF93BF93EF93FF938CE593E016
:102AE0003BDEFF91EF91BF91AF919F918F917F91CD
:102AF0006F915F914F913F912F910F900BBE0F906F
:102B00000FBE0F901F901895ECE5F3E01382128230
:102B100088EE93E0A0E0B0E084839583A683B7833A
:102B200083E992E0918380838DEC90E095878487A0
:102B30008CEC90E09787868788EC90E0918B808B77
:102B400089EC90E0938B828B8AEC90E0958B848B60
:102B50008EEC90E0978B868B118E128E138E148ED6
:102B600008951F920F920FB60F9211240BB60F9279
:102B70002F938F939F93EF93FF93E0910904F0912C
:102B80000A048081E0910F04F091100482FD1DC0C1
:102B90009081809112048F5F8F73209113048217AC
:102BA00041F0E0911204F0E0E750FC4F958F8093E4
:102BB0001204FF91EF919F918F912F910F900BBE77
:102BC0000F900FBE0F901F9018958081F2CF1F922B
:102BD0000F920FB60F9211240BB60F922F933F93C3
:102BE0004F935F936F937F938F939F93AF93BF9315
:102BF000EF93FF9389EF93E0AFDDFF91EF91BF91EA
:102C0000AF919F918F917F916F915F914F913F9184
:102C10002F910F900BBE0F900FBE0F901F90189525
:102C2000E9EFF3E01382128288EE93E0A0E0B0E0D7
:102C300084839583A683B78383E992E0918380831D
:102C400085ED90E09587848784ED90E0978786876F
:102C500080ED90E0918B808B81ED90E0938B828B67
:102C600082ED90E0958B848B86ED90E0978B868B40
:102C7000118E128E138E148E08951F920F920FB61E
:102C80000F9211240BB60F922F938F939F93EF9374
:102C9000FF93E091A604F091A7048081E091AC0439
:102CA000F091AD0482FD1DC090818091AF048F5FD3
:102CB0008F732091B004821741F0E091AF04F0E0EF
:102CC000EA56FB4F958F8093AF04FF91EF919F9150
:102CD0008F912F910F900BBE0F900FBE0F901F90F2
:102CE00018958081F2CF1F920F920FB60F92112488
:102CF0000BB60F922F933F934F935F936F937F93F6
:102D00008F939F93AF93BF93EF93FF9386E994E0E4
:102D100023DDFF91EF91BF91AF919F918F917F91B3
:102D20006F915F914F913F912F910F900BBE0F903C
:102D30000FBE0F901F901895E6E9F4E013821282FF
:102D400088EE93E0A0E0B0E084839583A683B78308
:102D500083E992E09183808385E391E0958784877E
:102D600084E391E09787868780E391E0918B808B65
:102D700081E391E0938B828B82E391E0958B848B4E
:102D800086E391E0978B868B118E128E138E148EB4
:102D90000895AF92BF92CF92DF92EF92FF920F937E
:102DA0001F93CF93DF936C017B018B01040F151FE1
:102DB000EB015E01AE18BF08C017D10759F0699149
:102DC000D601ED91FC910190F081E02DC60119959D
:102DD000892B79F7C501DF91CF911F910F91FF905A
:102DE000EF90DF90CF90BF90AF900895A1E21A2EA0
:102DF000AA1BBB1BFD010DC0AA1FBB1FEE1FFF1F9F
:102E0000A217B307E407F50720F0A21BB30BE40BEE
:102E1000F50B661F771F881F991F1A9469F7609535
:102E20007095809590959B01AC01BD01CF010895EF
:102E3000EE0FFF1F881F8BBF0790F691E02D1994AE
:102E400009D0A59F900DB49F900DA49F800D911D5A
:102E500011240895A29FB001B39FC001A39F700DDC
:102E6000811D1124911DB29F700D811D1124911D92
:062E70000895F894FFCF65
:102E76006F12833A6F12833A00000000BD1B0F40A9
:102E86000000F34300000000BD1B0F4000806F44AC
:102E96000000000000009642000000000000B4C3DD
:102EA600000000000000B4430000C8C2000000009B
:102EB6000000C842000000006F12833A00000000C4
:102EC6000000B4C3000000000000B4430000C8C204
:102ED600000000000000C842000000406F12833A64
:102EE6003333234033332340000001000100000048
:102EF600000000C040000000000000C04045060081
:102F0600000000ED13C9169D13CE136F1389137BB2
:022F16001300A6
:00000001FF
