:1000000032C1000061C100005FC100005DC100009D
:100010005BC1000059C1000057C1000055C100007C
:1000200053C1000051C100004FC100004DC100008C
:100030004BC1000049C1000047C1000045C100009C
:1000400043C1000041C100003FC100003DC10000AC
:100050003BC1000039C1000037C100000C940912F7
:1000600033C100000C94AA150C94E0152DC10000BA
:100070002BC1000029C1000027C1000025C10000DC
:1000800023C1000021C100001FC100001DC10000EC
:100090000C9436160C946C1617C1000015C10000A4
:1000A00013C1000011C100000FC100000DC100000C
:1000B0000BC1000009C1000007C1000005C100001C
:1000C00003C1000001C100000C94FD0D0C94C21688
:1000D0000C94F816F9C000000C944E170C94841779
:1000E000F3C0000008000000BE922449123EABAAF3
:1000F000AA2ABECDCCCC4C3E00000080BEABAAAA42
:10010000AA3E00000000BF000000803F0000000089
:1001100000084178D3BB4387D1133D190E3CC3BDC2
:100120004282AD2B3E68EC8276BED98FE1A93E4C6F
:1001300080EFFFBE01C4FF7F3F0000000000000011
:100140000A0B02090C0D0E08070304010000000051
:10015000000000000000000000000000000000009F
:10016000000000000000000000001211100000005C
:10017000000000000000000000000000000000007F
:10018000000000000102102020080810204010206C
:10019000408002010201080402010102040810204B
:1001A0004080804020100804020180040201804049
:1001B00020100804020108040201010204081020B2
:1001C0004080010204081020408005050505070550
:1001D00008080808020202020A0A080804040404C3
:1001E00001010101010101010303030303030303EF
:1001F000040707070C0C0C0C0C0C0C0C020202027E
:1002000006060606060606060B0B0B0B0B0B0B0B66
:10021000000020002300260029002C002F003200BF
:100220000001000003010601090100002200250071
:1002300028002B002E0031003400020100000501CF
:1002400008010B0100002100240027002A002D00D6
:100250003000330001010000040107010A01091602
:1002600095162117AD1711241FBECFEFD1E2DEBFC7
:10027000CDBF00E00CBF12E0A0E0B2E0E8E9F0E39F
:1002800000E00BBF02C007900D92AA3DB107D9F75D
:1002900026E0AAEDB2E001C01D92AA39B207E1F74B
:1002A00011E0C3E3D1E000E006C021970109802FEF
:1002B000FE010E942918CF32D10780E00807A9F774
:1002C0000E94640E0C944A189BCE0895CF92DF9240
:1002D000EF92FF92CF93882351F16A017B01CFEF18
:1002E000C80F20E030E0A901CB01B6010E94FF0E4B
:1002F00087FF11C0C701B60190580E94700F9B0183
:10030000AC016C2F70E090E080E0CF91FF90EF9017
:10031000DF90CF90B2C0C701B6010E946B0F8C2F47
:10032000CF91FF90EF90DF90CF900C94B512CF91CA
:10033000FF90EF90DF90CF9008950F931F938B0164
:100340009C0183E036952795179507958A95D1F7F7
:1003500006521D4F462F477021E030E0F90102C0E0
:10036000EE0FFF1F4A95E2F7AF01F8012081242329
:10037000CB010196211102C090E080E01F910F9106
:1003800008950F931F938B019C0183E03695279569
:10039000179507958A95D1F7677081E090E001C0C5
:1003A000880F6A95EAF7F801E652FD4F2081452B48
:1003B00031F48095822380831F910F910895822BC1
:1003C000FACF2F923F924F925F926F927F928F92CD
:1003D0009F92AF92BF92CF92DF92EF92FF920F93D4
:1003E0001F93CF93DF93D62EC72E782E692E490107
:1003F0005A01280161E08D2D0E94EF13CD2DDC2DD7
:100400008E010F5F1F4FA8016D2D7C2D872D962D1E
:10041000B8DF20E030E0A901C201B7010E94EF106F
:10042000181664F4C201B7010E94700F2B01C501B8
:10043000B4010E94700FA201CE0123D0C801DF9148
:10044000CF911F910F91FF90EF90DF90CF90BF90D1
:10045000AF909F908F907F906F905F904F903F9064
:100460002F900895882341F08150682F70E090E02C
:1004700080E050E040E085CF0895862FB9010C94CC
:10048000B5129C01FC01E25CFE4FE491E150E231C7
:10049000E0F4F0E08827E05BFD4F8F4F0C942918C3
:1004A000620269026C02830298026502AD02B9021F
:1004B000BD02D402E902FE0215032A0365023F03CE
:1004C00056036B0384B5806884BD60E0822F0C9472
:1004D0002B1484B58062F8CF809180008C7F82607D
:1004E0008093800080918100807E8061682B609382
:1004F000810050938700409386008091800080683F
:1005000080938000E2CF809180008C7F8260809316
:10051000800080918100807E8061682B60938100E3
:100520005093870040938600809180008062E8CFDE
:10053000809180008C7F8260809380008091810018
:10054000807E8061682B6093810050938700409388
:100550008600809180008860D3CF8091B000806851
:100560008093B0008091B100887F682B6093B100C8
:10057000ACCF8091B0008062F3CF809190008C7FEF
:1005800082608093900080919100807E8061682BD2
:100590006093910050939700409396008091900053
:1005A00080688093900091CF809190008C7F8260D2
:1005B0008093900080919100807E8061682B609391
:1005C0009100509397004093960080919000806234
:1005D000E8CF809190008C7F826080939000809122
:1005E0009100807E8061682B60939100509397000A
:1005F00040939600809190008860D3CF8091A000B6
:100600008C7F82608093A0008091A100807E8061B9
:10061000682B6093A1005093A7004093A60080919F
:10062000A00080688093A00050CF8091A0008C7FB4
:1006300082608093A0008091A100807E8061682B01
:100640006093A1005093A7004093A6008091A00062
:100650008062E8CF8091A0008C7F82608093A000B0
:100660008091A100807E8061682B6093A1005093EF
:10067000A7004093A6008091A0008860D3CF80910E
:1006800020018C7F82608093200180912101807EF7
:100690008061682B609321015093270140932601CC
:1006A000809120018068809320010FCF80912001EC
:1006B0008C7F82608093200180912101807E806107
:1006C000682B60932101509327014093260180916C
:1006D00020018062E8CF809120018C7F826080932E
:1006E000200180912101807E8061682B609321012F
:1006F0005093270140932601809120018860D3CF39
:10070000611102C00C94EF136130E1F362E0FACFA3
:10071000662319F061E00C942B1460E0FCCF0E947A
:10072000581421E0019709F020E0822F0895CF931B
:10073000DF93EC0189819A81AB81BC810197A1058E
:10074000B105C1F48D818823A9F06A857B858C85EC
:100750009D85F3DD9987888740E050E0BA01B6DDDA
:100760006A857B858C859D85E8DD99878887DF9103
:10077000CF9178CEDF91CF9108952F923F924F92F3
:100780005F926F927F928F929F92AF92BF92CF9221
:10079000DF92EF92FF920F931F93CF93DF9300D0DE
:1007A00000D000D01F92CDB7DEB74B015C015A8755
:1007B00049871901E982FA820B831C83AC019B01F2
:1007C000A985BA856D917D918D919C910E94EF10C4
:1007D00087FFB6C0E981FA81EE0FFF1FEE0FFF1F02
:1007E00029853A85E20FF31FA5019401608171818B
:1007F000828193810E94EF1018160CF051C02701DE
:1008000038017694679457944794D801C7018D8333
:100810009E83AF83B887C12CD12C76018D819E81B8
:10082000AF81B8858C199D09AE09BF090297A10552
:10083000B10508F05BC0C601880F991F880F991F8A
:10084000E985FA85E80FF91FFE83ED83408051802A
:1008500062807380A3019201C501B4010E949A0EC7
:100860004B015C01A3019201AD81BE8114966D9193
:100870007D918D919C9117970E949A0E9B01AC01DE
:10088000C501B4010E94030F4B015C0189819A816B
:10089000AB81BC81C816D906EA06FB0609F057C031
:1008A000C980DA80CC0CDD1CCC0CDD1CC20CD31C46
:1008B000D6016D917D918D919C912A960FB6F894F9
:1008C000DEBF0FBECDBFDF91CF911F910F91FF9083
:1008D000EF90DF90CF90BF90AF909F908F907F90E0
:1008E0006F905F904F903F902F900895F201EE0F20
:1008F000FF1FEE0FFF1FA985BA85EA0FFB1FA50199
:10090000940160817181828193810E94EF10181699
:1009100034F0730162014D805E806F807884D30172
:10092000C2018C0D9D1DAE1DBF1D4D825E826F826A
:1009300078862C013D0176946794579447946ECF46
:10094000C12CD12C7601812C912C54019FCFBFEF6B
:10095000CB1ADB0ACC0CDD1CCC0CDD1C2C0C3D1C9A
:10096000F1013497C080D180E280F380A701960125
:10097000F10160817181828193810E949A0EA501AB
:1009800094010E943811A70196010E949B0E95CFF9
:100990003F924F925F926F927F928F929F92AF920F
:1009A000BF92CF92DF92EF92FF920F931F93CF935C
:1009B000DF93362E4A015901E701662309F458C036
:1009C0002881213009F454C0FC0162817381848143
:1009D00095810E949C0F2FE632E143E85AE30E9482
:1009E00038112B013C01F501208131814281538175
:1009F0000E949A0E9B01AC01F80164817581868189
:100A000097810E94030F0E94D90F6B017C010E9405
:100A1000D80D811140C0C701B6010E946C0D811133
:100A20003AC020E030E040E85FE4C701B6010E9430
:100A3000F30F6B017C0120E030E0A9010E94FF0E62
:100A400087FF2CC0C701B60190580E94700F909587
:100A50008095709561957F4F8F4F9F4FF401608314
:100A6000718382839383F501408251826282738213
:100A70003882DF91CF911F910F91FF90EF90DF901F
:100A8000CF90BF90AF909F908F907F906F905F902E
:100A90004F903F900895C12CD12C7601C701B6012B
:100AA0000E94700FDBCF8F929F92AF92BF92CF9236
:100AB000DF92EF92FF92CF93DF93EC01688179810F
:100AC0008A819B812DE133EF41E050E00E940718BD
:100AD00049015A019B01AC01A7EAB1E40E94311817
:100AE0006B017C01A4E1BBE0A50194010E943118D7
:100AF000C616D706E806F90634F421E0C21AD10872
:100B0000E10820E8F20AC61AD70AE80AF90AC882F8
:100B1000D982EA82FB82688179818A819B810E94E5
:100B20009C0F20E030E040E050E30E943811DF915C
:100B3000CF91FF90EF90DF90CF90BF90AF909F90BC
:100B40008F9008958F929F92AF92BF92CF92DF9233
:100B5000EF92FF92CF93DF93EC01CE01A4DF9B01D4
:100B6000AC010E949B0E20E030E040E85FE30E9471
:100B70009A0E60937006709371068093720690933C
:100B80007306CE0190DF9B01AC010E949B0E20E01A
:100B900030E040E85FE30E949A0EC0907006D0906B
:100BA0007106E0907206F09073069B01AC010E9402
:100BB00038114B015C01A7019601C701B6010E94E3
:100BC0003811A50194010E949B0E4B015C0120E0AD
:100BD00030E040E85FE30E94EF1018160CF4BDCF40
:100BE000C501B4010E94F81020E030E040E050EC74
:100BF0000E943811A50194010E94030F0E949F11C9
:100C00009B01AC01C701B6010E943811DF91CF9161
:100C1000FF90EF90DF90CF90BF90AF909F908F901C
:100C200008952F923F924F925F926F927F928F9290
:100C30009F92AF92BF92CF92DF92EF92FF920F936B
:100C40001F93CF93DF93C0900402D0900502E090F1
:100C50000602F0900702A701960160918D05709140
:100C60008E0580918F05909190050E94FF0E88233C
:100C700041F0C0928D05D0928E05E0928F05F092E2
:100C8000900588E04CDD3AE6E32E36E0F32E0DEADF
:100C900012E021E636E048E756E0682F83E695E06B
:100CA00077DEC0900002D0900102E0900202F09046
:100CB0000302A70196016091990570919A058091B0
:100CC0009B0590919C050E94FF0E882341F0C092E5
:100CD0009905D0929A05E0929B05F0929C0589E0D7
:100CE0001EDD2BE6E22E26E0F22E09EB12E025E6D1
:100CF00036E04CE756E0682F83E695E049DE8091C8
:100D0000A802882309F4BDC2609145067091460689
:100D100080914706909148060091490610914A0635
:100D200020914B0630914C06601B710B820B930B8C
:100D30000E949E0F209168023091690240916A02E0
:100D400050916B020E9438112B013C01C09070023F
:100D5000D0907102E0907202F09073028090640271
:100D600090906502A0906602B0906702C1E0A50174
:100D70009401C701B6010E94FF0E811101C0C0E0BD
:100D8000A5019401C701B6010E94FF0E811114C094
:100D900080916906882381F080914D0690914E06DE
:100DA000A0914F06B09150068093740690937506FB
:100DB000A0937606B0937706C093690620E030E0F2
:100DC000A901C701B6010E94FF0E882309F46AC277
:100DD00080905C0290905D02A0905E02B0905F02F5
:100DE000A70196016091740270917502809176025C
:100DF000909177029FD7A50194019DD77B018C012B
:100E0000C0907802D0907902D0917A02C0917B0292
:100E10009B01AC01B6018D2F9C2FF1D787FD14C02B
:100E2000C0907C02D0907D02D0917E02C0917F0262
:100E30009701A801B6018D2F9C2F0E94EF10181664
:100E40001CF06701D02FC12F60917305709174055C
:100E5000809175059091760570DA8C0190937205FA
:100E6000809371052091800230918102409182022D
:100E700050918302B6018D2F9C2F0E9438114B0197
:100E80005C0120E030E04FE753E4B9D787FF21C28F
:100E900080926C0690926D06A0926E06B0926F06DC
:100EA00020E030E0A90160916C0670916D068091A0
:100EB0006E0690916F060E94EF10181644F0109283
:100EC0006C0610926D0610926E0610926F0640919D
:100ED0006C0650916D0660916E0670916F06C801A8
:100EE000F5D912E0E12EF12C00E010E028E032E02C
:100EF00044E152E0B6018D2F9C2F3FDC20913D064E
:100F000030913E0640913F065091400614D7209103
:100F100084023091850240918602509187020BD75E
:100F2000209188023091890240918A0250918B026F
:100F30000E9438112091510630915206409153067B
:100F400050915406F8D64B015C010E94D90F6B01F9
:100F50007C0114D68111CAC1C701B601E6D5811141
:100F6000C5C120E030E040E85FE4C701B6010E945F
:100F7000F30F6B017C0120E030E0A90140D787FF2F
:100F8000B8C1C701B6019058ABD7909580957095C0
:100F900061957F4F8F4F9F4F6093490670934A062C
:100FA00080934B0690934C06209170023091710211
:100FB00040917202509173026091740270917502B7
:100FC0008091760290917702B6D67B018C01C09118
:100FD0009002D091910230909202209093029B0156
:100FE000AC01BE01832D922D0AD787FD14C0C0919C
:100FF0009402D0919502309096022090970297012A
:10100000A801BE01832D922D0E94EF1018161CF02E
:10101000E701302E212E609181057091820580912B
:1010200083059091840589D98C01909380058093E4
:101030007F05209198023091990240919A02509137
:101040009B02BE01832D922D0E9438116B017C0101
:1010500020E030E04FE753E4D2D687FF4EC1C09284
:101060006C06D0926D06E0926E06F0926F0620E05C
:1010700030E0A90160916C0670916D0680916E065A
:1010800090916F060E94EF10181644F010926C06B3
:1010900010926D0610926E0610926F0640916C06CB
:1010A00050916D0660916E0670916F06C8010ED961
:1010B00012E0E12EF12C00E010E02CE232E048E3F7
:1010C00052E0BE01832D922D58DB209141063091D4
:1010D000420640914306509144062DD620919C0231
:1010E00030919D0240919E0250919F0224D6209102
:1010F000A0023091A1024091A2025091A3020E944D
:10110000381120915506309156064091570650915E
:10111000580611D66093550670935606809357066D
:101120009093580646D76B017C0128D58111F2C0F7
:10113000C701B601FAD48111EDC020E030E040E8EB
:101140005FE4C701B6014FD76B017C0120E030E0BE
:10115000A90155D687FFE1C0C701B6019058C0D696
:1011600090958095709561957F4F8F4F9F4F6093BD
:101170004506709346068093470690934806609113
:10118000A90284E0C5DA6091AA0285E0C1DA609123
:10119000AB0282E0BDDA6091AC0283E0B9DA409242
:1011A0004D0650924E0660924F067092500689E5A9
:1011B00096E0C8DC2091240230912502409126025D
:1011C000509127020E943811209120023091210273
:1011D0004091220250912302AED560933D06709358
:1011E0003E0680933F06909340068092510690926F
:1011F0005206A0925306B09254068DE596E0A2DC0A
:10120000209148023091490240914A0250914B028C
:101210000E943811209144023091450240914602CB
:101220005091470288D5609341067093420680939F
:101230004306909344068091650590916605A091C0
:101240006705B09168050196A11DB11D80936505E4
:1012500090936605A0936705B0936805DF91CF91E1
:101260001F910F91FF90EF90DF90CF90BF90AF90C4
:101270009F908F907F906F905F904F903F902F90B6
:101280000895609178067091790680917A06909120
:101290007B0600917C0610917D0620917E063091A0
:1012A0007F0642CD209174063091750640917606F6
:1012B00050917706C301B2013DD52091580230917B
:1012C000590240915A0250915B02D2D74B015C0106
:1012D00087CD80E090E0AFE7B3E480936C06909315
:1012E0006D06A0936E06B0936F06DACDC12CD12C9B
:1012F0007601C701B601F4D54FCE80E090E0AFE7AC
:10130000B3E480936C0690936D06A0936E06B09341
:101310006F06ADCEC12CD12C7601C701B601E0D548
:1013200026CF2F923F924F925F926F927F928F9231
:101330009F92AF92BF92CF92DF92EF92FF920F9364
:101340001F93CF93DF9384E090E08FD310926906D0
:1013500081E080936A0680936B06809150029091A1
:101360005102A0915202B09153028093450690938E
:101370004606A0934706B093480680915402909188
:101380005502A0915602B09157028093490690935E
:101390004A06A0934B06B0934C0680916C02909144
:1013A0006D02A0916E02B0916F0280934D069093F2
:1013B0004E06A0934F06B09350066091280270919C
:1013C000290280912A0290912B02F3D54B015C01F6
:1013D000EFD38111C3C2C501B4017ED38111BEC256
:1013E00020E030E040E85FE4C501B401FCD54B01EA
:1013F0005C0120E030E0A90102D587FFB2C2C5013F
:10140000B40190586DD590958095709561957F4FFA
:101410008F4F9F4F2B01442420E85222712C612CC6
:101420004B015C01840C951CA61CB71C540199242B
:101430008824BC0188279927460E571E681E791EEE
:10144000840C951CA61CB71C82E897EBA1E3B4E4BE
:1014500081149104A104B10409F48BC28FEF8816A2
:101460009806A8068FE7B80608F07FC28092590652
:1014700090925A06A0925B06B0925C0689E596E0CF
:1014800061DB209124023091250240912602509187
:101490002702EED6209120023091210240912202B3
:1014A0005091230248D460933D0670933E0680938A
:1014B0003F069093400680918C0290918D02A091FE
:1014C0008E02B0918F028093510690935206A093A2
:1014D0005306B093540660914C0270914D02809176
:1014E0004E0290914F0265D54B015C0161D3811191
:1014F00049C2C501B401F0D2811144C220E030E0FC
:1015000040E85FE4C501B4016ED54B015C0120E009
:1015100030E0A90174D487FF38C2C501B4019058E6
:10152000DFD490958095709561957F4F8F4F9F4F39
:101530002B01442420E85222712C612C4B015C01C8
:10154000840C951CA61CB71C540199248824BC014A
:1015500088279927460E571E681E791E840C951CF5
:10156000A61CB71C82E897EBA1E3B4E481149104B4
:10157000A104B10409F411C28FEF88169806A806D9
:101580008FE7B80608F005C280925D0690925E066D
:10159000A0925F06B09260068DE596E0D3DA2091C6
:1015A00048023091490240914A0250914B0260D664
:1015B00020914402309145024091460250914702E9
:1015C000BAD360934106709342068093430690938A
:1015D00044068091A4029091A502A091A602B09128
:1015E000A7028093550690935606A0935706B09392
:1015F00058068091AD029091AE02A091AF02B091D9
:10160000B0028093610690936206A0936306B09344
:1016100064068091B5029091B602A091B702B09194
:10162000B8028093780690937906A0937A06B093D7
:101630007B068091B9029091BA02A091BB02B09151
:10164000BC028093650690936606A0936706B093EC
:1016500068068091C1029091C202A091C302B0912C
:10166000C40280937C0690937D06A0937E06B0937F
:101670007F068091600290916102A0916202B09118
:1016800063028093740690937506A0937606B093D8
:101690007706109285058091040290910502A09131
:1016A0000602B091070280938D0590938E05A0935A
:1016B0008F05B0939005812C912C540183948092D6
:1016C000860590928705A0928805B092890560E012
:1016D00088E016D8D1E0D0938A05109291058091C8
:1016E000000290910102A0910202B0910302809346
:1016F000990590939A05A0939B05B0939C058092C1
:10170000920590929305A0929405B092950560E0A1
:1017100089E00E948003D09396051092690592E3B8
:10172000C92EC092AD0523E3D22ED092AE0534E38C
:10173000232E2092AF0545E3342E3092B00556E3B8
:10174000452E4092B10567E3562E5092B20578E3DC
:10175000672E6092B305E9E37E2E7092B405C1E373
:10176000C093B50520E32093B605C093B705C09399
:10177000B805C093B905C092BA05C093BB05D09215
:10178000BC058DEA95E09093700580936F058BE022
:1017900090E0A0E0B0E08093730590937405A0936F
:1017A0007505B093760510926E0580926A05909249
:1017B0006B05A0926C05B0926D05E12CF12C8701B0
:1017C000A80197016BE070E080E090E00E94E101E9
:1017D0009093720580937105609173057091740503
:1017E00080917505909176050E949D0190937205F8
:1017F000809371050E946501D0936E051092770564
:10180000C092ED05D092EE052092EF053092F005E2
:101810004092F1055092F2056092F3057092F40542
:10182000C093F50580E38093F605C093F705C09358
:10183000F805C093F905C092FA05C093FB05D09254
:10184000FC058DEE95E090937E0580937D058AE002
:1018500090E0A0E0B0E08093810590938205A09392
:101860008305B093840510927C0580927805909250
:101870007905A0927A05B0927B05A80197016AE0EC
:1018800070E080E090E00E94E101909380058093F9
:101890007F0560918105709182058091830590910B
:1018A00084050E949D019093800580937F050E948E
:1018B0006501D0937C0510921D0680921E069092C1
:1018C0001F06A0922006B092210661E084E00E94EB
:1018D0008003D093220610922506809226069092CD
:1018E0002706A0922806B092290661E085E00E94B2
:1018F0008003D0932A0610922D0680922E06909295
:101900002F06A0923006B092310661E082E00E947C
:101910008003D0933206109235068092360690925C
:101920003706A0923806B092390661E083E00E9443
:101930008003D0933A06DF91CF911F910F91FF90D2
:10194000EF90DF90CF90BF90AF909F908F907F905F
:101950006F905F904F903F902F900895812C912C25
:101960005401C501B401BCD255CD8EEF9FEFAFEF4E
:10197000BFE78093590690935A06A0935B06B093F5
:101980005C067CCD812C912C5401C501B401A8D2F8
:10199000CFCD8EEF9FEFAFEFBFE780935D069093C3
:1019A0005E06A0935F06B0936006F6CD8091850534
:1019B000811103C081E0809385058091910581119B
:1019C00003C081E08093910580916905811107C072
:1019D00081E08093690589E695E00E9497038091F4
:1019E0007705811107C081E08093770587E795E04F
:1019F0000E94970380911D06811103C081E08093AE
:101A00001D0680912506811103C081E08093250683
:101A100080912D06811103C081E080932D06809175
:101A20003506811103C081E080933506089560E09A
:101A300070E080E89FE7089560E070E080E89FE74D
:101A4000089560E070E080E89FEF089560E070E046
:101A500080E89FEF089560E070E080EC9FEF0895CC
:101A600060E070E080EC9FEF0895F5DF60938C06F6
:101A700070938D0680938E0690938F06F1DF6093AE
:101A80008006709381068093820690938306CFDF51
:101A9000609388067093890680938A0690938B06DC
:101AA000CBDF6093840670938506809386069093BF
:101AB0008706C7DF60939006709391068093920625
:101AC00090939306C3DF609394067093950680937A
:101AD0009606909397060895CF92DF92EF92FF9229
:101AE000CF936B017C01AC019B01609188067091E2
:101AF000890680918A0690918B0681D1C1E0882366
:101B000069F0A7019601609190067091910680910D
:101B100092069091930673D18111C0E08C2FCF91E2
:101B2000FF90EF90DF90CF900895CF92DF92EF92E9
:101B3000FF92CF936B017C01AC019B016091840605
:101B400070918506809186069091870658D1C1E0F4
:101B5000882369F0A701960160919406709195061B
:101B600080919606909197064AD18111C0E08C2F02
:101B7000CF91FF90EF90DF90CF9008950F931F9338
:101B80008B019C010027112720783F770115110553
:101B900020483F4749F4AB01BC016F77772781E0CC
:101BA000452B462B472B09F480E01F910F91089598
:101BB000E5CF40E855E260E070E090E080E000C0F2
:101BC0008130910571F01CF4892B39F00895823031
:101BD000910559F0039769F0089526E08FEE92E0A1
:101BE00059C726E08CE893E0FBCF26E089E294E039
:101BF000F7CF26E086EC94E0F3CF1F920F920FB65A
:101C00000F9211240BB60F922F933F934F935F9334
:101C10006F937F938F939F93AF93BF93EF93FF93B4
:101C200086E09FEF909325018093240134D0FF91AB
:101C3000EF91BF91AF919F918F917F916F915F9144
:101C40004F913F912F910F900BBE0F900FBE0F90B1
:101C50001F90189586E09FEF9093250180932401B3
:101C6000A3E7B0E08C918E7F8C93E0E2F1E080817D
:101C70008C7F8083E1E2F1E08081877E80838081B8
:101C80008360808380818B7F80838C9181608C9343
:101C9000089581E008958091E30291E0980F909378
:101CA000E302882349F021E030E03093E5022093FD
:101CB000E4028093E302089578940E941106F89458
:101CC0008091E3028150F5CFCF93DF931092990674
:101CD00010929806E8D36DDFC091C502D091C6027C
:101CE000198218821EDBB6DF81E028813981232B1F
:101CF00009F080E080939806789478948091980613
:101D0000811107C053DEF89490E080E0DF91CF911D
:101D1000089581E028813981232B09F480E08093A4
:101D200099069091990681E0911180E08093980640
:101D3000B0DFE4CF5058BB27AA270ED0FFC1F0D1A7
:101D400030F0F5D120F031F49F3F11F41EF4E5C1DD
:101D50000EF4E095E7FBB2C1E92F01D280F3BA1788
:101D6000620773078407950718F071F49EF530C277
:101D70000EF4E0950B2EBA2FA02D0B01B9019001A6
:101D80000C01CA01A0011124FF27591B99F0593FEA
:101D900050F4503E68F11A16F040A22F232F342F32
:101DA0004427585FF3CF469537952795A795F04080
:101DB0005395C9F77EF41F16BA0B620B730B840B95
:101DC000BAF09150A1F0FF0FBB1F661F771F881F4D
:101DD000C2F70EC0BA0F621F731F841F48F48795A5
:101DE00077956795B795F7959E3F08F0B3CF939594
:101DF000880F08F09927EE0F9795879508953AD1A7
:101E000008F481E008950CD099C191D140F088D1B7
:101E100030F021F45F3F19F051C15111DAC17DC199
:101E20009ED198F39923C9F35523B1F3951B550B14
:101E3000BB27AA2762177307840738F09F5F5F4F9D
:101E4000220F331F441FAA1FA9F333D00E2E3AF0DE
:101E5000E0E830D091505040E695001CCAF729D0F8
:101E6000FE2F27D0660F771F881FBB1F2617370747
:101E70004807AB07B0E809F0BB0B802DBF01FF2777
:101E800093585F4F2AF09E3F510568F017C1A1C1DA
:101E90005F3FECF3983EDCF3869577956795B795B1
:101EA000F7959F5FC9F7880F911D9695879597F9CC
:101EB0000895E1E0660F771F881FBB1F6217730745
:101EC0008407BA0720F0621B730B840BBA0BEE1F5A
:101ED00088F7E095089504D06894B1117AC1089507
:101EE00046D188F09F5790F0B92F9927B751A0F0AD
:101EF000D1F0660F771F881F991F1AF0BA95C9F79E
:101F000012C0B13081F064D1B1E0089561C1672F92
:101F1000782F8827B85F39F0B93FCCF3869577954D
:101F20006795B395D9F73EF4909580957095619536
:101F30007F4F8F4F9F4F0895E89409C097FB3EF461
:101F400090958095709561957F4F8F4F9F4F992306
:101F5000A9F0F92F96E9BB279395F6958795779584
:101F60006795B795F111F8CFFAF4BB0F11F460FF44
:101F70001BC06F5F7F4F8F4F9F4F16C0882311F09C
:101F800096E911C0772321F09EE8872F762F05C0B0
:101F9000662371F096E8862F70E060E02AF09A954B
:101FA000660F771F881FDAF7880F9695879597F940
:101FB0000895F7D080F09F3740F491110EF009C1D9
:101FC00060E070E080E89FEB089526F41B16611D29
:101FD000711D811D79C093C0A3D018F011F0A7D056
:101FE00038F49BC0F6C0E92FBAD0B0F35523C9F33B
:101FF000E7FB6217730784079507A8F199F3E92FA8
:10200000FF2788232AF03197660F771F881FDAF79A
:10201000952F5527442332F091505040220F331F03
:10202000441FD2F7BB27E91BF50B621B730B840B14
:10203000B109C1F222F4620F731F841FB11D3197E1
:102040002AF0660F771F881FBB1FEFCF91505040BB
:102050005AF041F0882332F0660F771F881F9150A5
:102060005040C1F793954BC08695779567959F5FD4
:10207000D9F7F8CF990F0008550FAA0BE0E8FEEF4B
:1020800016161706E807F907C0F012161306E4073C
:10209000F50798F0621B730B840B950B39F40A2635
:1020A00061F0232B242B252B21F408950A2609F413
:1020B000A140A6958FEF811D811D089597F99F6717
:1020C00080E870E060E00895882371F4772321F0C0
:1020D0009850872B762F07C0662311F499270DC0DF
:1020E0009051862B70E060E02AF09A95660F771F7A
:1020F000881FDAF7880F9695879597F908959F3F7F
:1021000031F0915020F4879577956795B795880FB2
:10211000911D9695879597F908959FEF80EC089506
:1021200000240A94161617061806090608950024B6
:102130000A9412161306140605060895092E039430
:10214000000C11F4882352F0BB0F40F4BF2B11F4A4
:1021500060FF04C06F5F7F4F8F4F9F4F089557FD03
:102160009058440F551F59F05F3F71F04795880F05
:1021700097FB991F61F09F3F79F08795089512169C
:1021800013061406551FF2CF4695F1DF08C0161648
:1021900017061806991FF1CF8695710561050894F9
:1021A0000895E5DFA0F0BEE7B91788F4BB279F3894
:1021B00060F41616B11D672F782F8827985FF7CF28
:1021C000869577956795B11D93959639C8F30895CF
:1021D000E894BB2766277727CB0197F908954ADF54
:1021E00008F48FEF08950EF08ACF97CF689466CFEA
:1021F000BEDFC8F39923D1F3C6F3DF93CF931F93C8
:102200000F93FF92C92FDD2788232AF02197660FAD
:10221000771F881FDAF720E030E040E85FEB9FE3AC
:10222000883920F0803E30F021968F7784DDE4EE0F
:10223000F0E003C080DDE1E1F1E0C6D08B01BE013A
:10224000EC01FB2E6F5771097595771F880B990B61
:1022500075DE28E132E741E35FE316D0AF2D980148
:10226000AE01FF900F911F91CF91DF9175DD66CF89
:102270000BD064CF55DF28F05ADF18F0952309F012
:102280001DCF4BCF1124A5CF6ADFA0F3959FD1F3CB
:10229000950F50E0551F629FF001729FBB27F00D14
:1022A000B11D639FAA27F00DB11DAA1F649F662769
:1022B000B00DA11D661F829F2227B00DA11D621FB8
:1022C000739FB00DA11D621F839FA00D611D221F72
:1022D000749F3327A00D611D231F849F600D211D56
:1022E000822F762F6A2F11249F5750408AF0E1F0F9
:1022F00088234AF0EE0FFF1FBB1F661F771F881F42
:1023000091505040A9F79E3F510570F0D7CE61CF54
:102310005F3FECF3983EDCF3869577956795B7952C
:10232000F795E7959F5FC1F7FE2B880F911D969556
:10233000879597F9089511F40EF4EFCEE0CE17DFEC
:10234000D0F39923D9F3CEF39F57550B87FF35D0A0
:102350000024A0E640EA900180585695979528F40D
:10236000805C660F771F881F20F026173707480705
:1023700030F4621B730B840B202931294A2BA6955C
:1023800017940794202531254A2758F7660F771FA1
:10239000881F20F026173707480730F4620B730BAD
:1023A000840B200D311D411DA09581F7B901842FAB
:1023B0009158880F96958795089591505040660FD3
:1023C000771F881FD2F70895DF93CF931F930F9342
:1023D000FF92EF92DF927B018C01689405C0DA2EA8
:1023E000EF0152DFFE01E894A591259135914591C9
:1023F0005591AEF3EF01B0DCFE019701A801DA942C
:1024000079F7DF90EF90FF900F911F91CF91DF91BF
:1024100008951F920F920FB60F9211242F933F939E
:102420008F939F93AF93BF938091E7029091E802BF
:10243000A091E902B091EA023091E60223E0230F75
:102440002D3758F50196A11DB11D2093E60280930A
:10245000E7029093E802A093E902B093EA02809128
:10246000EB029091EC02A091ED02B091EE02019688
:10247000A11DB11D8093EB029093EC02A093ED029D
:10248000B093EE02BF91AF919F918F913F912F91A9
:102490000F900FBE0F901F90189526E8230F0296FD
:1024A000A11DB11DD2CF789484B5826084BD84B55E
:1024B000816084BD85B5826085BD85B5816085BD3F
:1024C000EEE6F0E0808181608083E1E8F0E0108258
:1024D000808182608083808181608083E0E8F0E099
:1024E000808181608083E1EBF0E080818460808383
:1024F000E0EBF0E0808181608083E1E9F0E08081C1
:1025000082608083808181608083E0E9F0E0808167
:1025100081608083E1EAF0E0808182608083808155
:1025200081608083E0EAF0E0808181608083E1E285
:10253000F1E0808182608083808181608083E0E23D
:10254000F1E0808181608083EAE7F0E0808184604F
:1025500080838081826080838081816080838081AC
:10256000806880831092C10008951F93CF93DF93FA
:10257000182FEB0161E033D1209731F460E0812F17
:10258000DF91CF911F9167C1CF3FD10511F461E079
:10259000F6CFE12FF0E0E25CFE4FE491E150E23152
:1025A00008F0B2C0F0E08827E852FD4E8F4F51C5C9
:1025B000EA12F212F71201130B13841315131D13F1
:1025C00025132F133913431352135C13841366130B
:1025D00070137A1384B5806884BDC7BDDF91CF9135
:1025E0001F91089584B5806284BDC8BDF7CF8091E6
:1025F0008000806880938000D0938900C093880019
:10260000EDCF80918000806280938000D0938B001A
:10261000C0938A00E3CF809180008860809380001F
:10262000D0938D00C0938C00D9CF8091B00080688A
:102630008093B000C093B300D1CF8091B00080628E
:102640008093B000C093B400C9CF8091900080689F
:1026500080939000D0939900C0939800BFCF809151
:102660009000806280939000D0939B00C0939A006A
:10267000B5CF80919000886080939000D0939D00AA
:10268000C0939C00ABCF8091A00080688093A00095
:102690008091A0008F7B8093A000D093A900C0936D
:1026A000A8009CCF8091A00080628093A000D0936E
:1026B000AB00C093AA0092CF8091A0008860809365
:1026C000A000D093AD00C093AC0088CF80912001D2
:1026D000806880932001D0932901C09328017ECF88
:1026E00080912001806280932001D0932B01C093C0
:1026F0002A0174CF80912001886080932001D093BB
:102700002D01C0932C016ACFC038D1050CF03FCF0A
:1027100035CF8150823108F059C0E82FF0E088278A
:10272000EC56FC4E8F4F95C4B413B813A613AC13DC
:10273000B013E613BB13C113C513CB13CF13D313BD
:10274000D913DD13E613E113E713EB138091800037
:102750008F77809380000895809180008F7DF9CFDE
:1027600080918000877FF5CF84B58F7784BD0895F1
:1027700084B58F7DFBCF8091B0008F778093B000C0
:1027800008958091B0008F7DF9CF809190008F7770
:10279000809390000895809190008F7DF9CF809173
:1027A0009000877FF5CF8091A0008F778093A00065
:1027B00008958091A0008F7DF9CF8091A000877F40
:1027C000F5CF809120018F7780932001089580912B
:1027D00020018F7DF9CF80912001877FF5CFCF93A6
:1027E000DF9390E0FC01EC57FE4F249186539E4FFF
:1027F000FC0184918823C9F090E0880F991FFC01A7
:10280000EC5BFD4FA591B491FC01E65DFD4FC591D8
:10281000D49161110DC09FB7F8948C9120958223BB
:102820008C938881282328839FBFDF91CF910895BF
:10283000623051F49FB7F8943C91822F80958323A6
:102840008C93E8812E2BEFCF8FB7F894EC912E2B41
:102850002C938FBFEACF1F93CF93DF93282F30E0C5
:10286000F901E25CFE4F8491F901EC57FE4FD491DF
:10287000F901E653FE4FC491CC23A1F0162F81112C
:1028800048DFEC2FF0E0EE0FFF1FE65DFD4FA59156
:10289000B4918FB7F894EC91111108C0D095DE2354
:1028A000DC938FBFDF91CF911F910895DE2BF8CF7E
:1028B000CF93DF93282F30E0F901E25CFE4F849143
:1028C000F901EC57FE4FD491F901E653FE4FC49144
:1028D000CC2399F081111DDFEC2FF0E0EE0FFF1FEC
:1028E000E05FFD4FA591B491EC91ED2381E090E084
:1028F00009F480E0DF91CF91089580E090E0FACF75
:10290000FC01918D228D892F90E0805C9F4F821B6E
:1029100091098F7399270895FC01918D828D9817E5
:1029200031F0828DE80FF11D858D90E008958FEFD5
:102930009FEF0895FC01918D828D981761F0A28D13
:10294000AE0FBF2FB11D5D968C91928D9F5F9F73CF
:10295000928F90E008958FEF9FEF0895FC01538DC3
:10296000448D252F30E0842F90E0821B930B541769
:1029700010F0CF96089501970895FC01A48DA80F3B
:10298000B92FB11DA35ABF4F2C91848D90E00196B1
:102990008F739927848FA689B7892C93A089B189D1
:1029A0008C91837080648C93938D848D981306C072
:1029B0000288F389E02D80818F7D80830895CF93F5
:1029C000DF93EC01888D8823B1F0AA89BB89E8895F
:1029D000F9898C9185FD03C0808186FD0CC00FB6FE
:1029E00007FCF7CF8C9185FFF2CF808185FFEDCF7B
:1029F000CE01C3DFEACFDF91CF910895EF92FF922E
:102A00000F931F93CF93DF93EC0181E0888F9B8D11
:102A10008C8D98131AC0E889F989808185FF15C0CB
:102A20009FB7F894EE89FF896083E889F9898081EE
:102A30008370806480839FBF81E090E0DF91CF91BD
:102A40001F910F91FF90EF900895F62E0B8D10E0DF
:102A50000F5F1F4F0F731127E02E8C8D8E110BC04F
:102A60000FB607FCFACFE889F989808185FFF5CF99
:102A7000CE0183DFF2CFEB8DEC0FFD2FF11DE35A7A
:102A8000FF4FF0829FB7F8940B8FEA89FB89808112
:102A90008062D0CFCF92DF92EF92FF921F93CF93BD
:102AA000DF93EC016A017B01122FE889F98982E04A
:102AB0008083C11481EED806E104F10499F060E04E
:102AC00079E08DE390E0A7019601A1D22150310970
:102AD000410951095695479537952795211580E16C
:102AE000380790F0E889F989108260E874E88EE18F
:102AF00090E0A70196018BD221503109410951097B
:102B00005695479537952795EC85FD853083EE855D
:102B1000FF852083188EEC89FD891083EA89FB8963
:102B2000808180618083EA89FB89808188608083DD
:102B3000EA89FB89808180688083EA89FB898081BA
:102B40008F7D8083DF91CF911F91FF90EF90DF9079
:102B5000CF9008951F920F920FB60F9211240BB6CB
:102B60000F922F938F939F93EF93FF93E091FF0228
:102B7000F09100038081E0910503F091060382FD4E
:102B80001DC09081809108038F5F8F73209109038E
:102B9000821741F0E0910803F0E0E151FD4F958F7D
:102BA00080930803FF91EF919F918F912F910F9048
:102BB0000BBE0F900FBE0F901F9018958081F2CF23
:102BC0001F920F920FB60F9211240BB60F922F93F4
:102BD0003F934F935F936F937F938F939F93AF93A5
:102BE000BF93EF93FF938FEE92E0C7DEFF91EF91DB
:102BF000BF91AF919F918F917F916F915F914F9115
:102C00003F912F910F900BBE0F900FBE0F901F9012
:102C10001895EFEEF2E01382128288EE93E0A0E0C6
:102C2000B0E084839583A683B7838BEC92E0918395
:102C3000808385EC90E09587848784EC90E097878B
:102C4000868780EC90E0918B808B81EC90E0938B79
:102C5000828B82EC90E0958B848B86EC90E0978B56
:102C6000868B118E128E138E148E08951F920F92E2
:102C70000FB60F9211240BB60F922F938F939F9341
:102C8000EF93FF93E0919C03F0919D038081E0918D
:102C9000A203F091A30382FD1DC090818091A50342
:102CA0008F5F8F732091A603821741F0E091A503F7
:102CB000F0E0E457FC4F958F8093A503FF91EF91CF
:102CC0009F918F912F910F900BBE0F900FBE0F9081
:102CD0001F9018958081F2CF1F920F920FB60F921E
:102CE00011240BB60F922F933F934F935F936F93E3
:102CF0007F938F939F93AF93BF93EF93FF938CE852
:102D000093E03BDEFF91EF91BF91AF919F918F9147
:102D10007F916F915F914F913F912F910F900BBEDB
:102D20000F900FBE0F901F901895ECE8F3E0138200
:102D3000128288EE93E0A0E0B0E084839583A683BE
:102D4000B7838BEC92E0918380838DEC90E0958744
:102D500084878CEC90E09787868788EC90E0918B55
:102D6000808B89EC90E0938B828B8AEC90E0958B42
:102D7000848B8EEC90E0978B868B118E128E138E47
:102D8000148E08951F920F920FB60F9211240BB656
:102D90000F922F938F939F93EF93FF93E0913904BA
:102DA000F0913A048081E0913F04F091400482FD6B
:102DB0001DC09081809142048F5F8F7320914304E6
:102DC000821741F0E0914204F0E0E75DFB4F958F00
:102DD00080934204FF91EF919F918F912F910F90DB
:102DE0000BBE0F900FBE0F901F9018958081F2CFF1
:102DF0001F920F920FB60F9211240BB60F922F93C2
:102E00003F934F935F936F937F938F939F93AF9372
:102E1000BF93EF93FF9389E294E0AFDDFF91EF91D1
:102E2000BF91AF919F918F917F916F915F914F91E2
:102E30003F912F910F900BBE0F900FBE0F901F90E0
:102E40001895E9E2F4E01382128288EE93E0A0E0A4
:102E5000B0E084839583A683B7838BEC92E0918363
:102E6000808385ED90E09587848784ED90E0978757
:102E7000868780ED90E0918B808B81ED90E0938B45
:102E8000828B82ED90E0958B848B86ED90E0978B22
:102E9000868B118E128E138E148E08951F920F92B0
:102EA0000FB60F9211240BB60F922F938F939F930F
:102EB000EF93FF93E091D604F091D7048081E091E5
:102EC000DC04F091DD0482FD1DC090818091DF045F
:102ED0008F5F8F732091E004821741F0E091DF044F
:102EE000F0E0EA53FB4F958F8093DF04FF91EF9161
:102EF0009F918F912F910F900BBE0F900FBE0F904F
:102F00001F9018958081F2CF1F920F920FB60F92EB
:102F100011240BB60F922F933F934F935F936F93B0
:102F20007F938F939F93AF93BF93EF93FF9386EC21
:102F300094E023DDFF91EF91BF91AF919F918F912D
:102F40007F916F915F914F913F912F910F900BBEA9
:102F50000F900FBE0F901F901895E6ECF4E01382CF
:102F6000128288EE93E0A0E0B0E084839583A6838C
:102F7000B7838BEC92E09183808385E391E0958722
:102F8000848784E391E09787868780E391E0918B43
:102F9000808B81E391E0938B828B82E391E0958B30
:102FA000848B86E391E0978B868B118E128E138E25
:102FB000148E0895AF92BF92CF92DF92EF92FF925C
:102FC0000F931F93CF93DF936C017B018B01040F51
:102FD000151FEB015E01AE18BF08C017D10759F0ED
:102FE0006991D601ED91FC910190F081E02DC6012F
:102FF0001995892B79F7C501DF91CF911F910F9119
:10300000FF90EF90DF90CF90BF90AF900895A1E236
:103010001A2EAA1BBB1BFD010DC0AA1FBB1FEE1F52
:10302000FF1FA217B307E407F50720F0A21BB30B9D
:10303000E40BF50B661F771F881F991F1A9469F719
:1030400060957095809590959B01AC01BD01CF0175
:103050000895EE0FFF1F881F8BBF0790F691E02D9C
:10306000199409D0A59F900DB49F900DA49F800D39
:10307000911D11240895A29FB001B39FC001A39F89
:10308000700D811D1124911DB29F700D811D1124A1
:08309000911D0895F894FFCF93
:103098006F12833A6F12833A0000B4C30000000035
:1030A8000000B4430000C8C2000000000000C8428D
:1030B80000000000BD1B0F4000003B430000B4C3EC
:1030C800000000000000B4430000C8C20000000077
:1030D8000000C84200000000BD1B0F400000F5437F
:1030E80000000000000000000000003F0000000099
:1030F8000000000000000000F2416F3F00000000E7
:1031080000000000000096420000C84200000000D5
:1031180033332340000000406F12833A0000000060
:103128000000C842000000003333234000000000C4
:103138006F12833A00000000000001000100000047
:10314800000000C04000000000000000000000C0B7
:103158004000000000630500000000FE14DA17AE0E
:0A31680014DF1480149A148C140074
:00000001FF
