:1000000005C1000033C1000031C100002FC1000054
:100010002DC100002BC1000029C1000027C1000034
:1000200025C1000023C1000021C100001FC1000044
:100030001DC100001BC1000019C1000017C1000054
:1000400015C1000013C1000011C100000FC1000064
:100050000DC100000BC1000009C100000C9486090D
:1000600005C100000C94270D0C945D0DFFC000002D
:10007000FDC00000FBC00000F9C00000F7C0000098
:10008000F5C00000F3C00000F1C00000EFC00000A8
:100090000C94B30D0C94E90DE9C00000E7C000001A
:1000A000E5C00000E3C00000E1C00000DFC00000C8
:1000B000DDC00000DBC00000D9C00000D7C00000D8
:1000C000D5C00000D3C000006EC600000C943F0EE7
:1000D0000C94750ECBC000000C94CB0E0C94010F49
:1000E000C5C0000000000A0B02090C0D0E08070332
:1000F00004010000000000000000000000000000FB
:1001000000000000000000000000000000000000EF
:1001100012111000000000000000000000000000AC
:100120000000000000000000000001021020200874
:100130000810204010204080020102010804020142
:1001400001020408102040808040201008040201B1
:10015000800402018040201008040201080402010A
:100160000102040810204080010204081020408091
:1001700005050505070508080808020202020A0A23
:100180000808040404040101010101010101030341
:10019000030303030303040707070C0C0C0C0C0CEC
:1001A0000C0C0202020206060606060606060B0BE9
:1001B0000B0B0B0B0B0B000020002300260029006B
:1001C0002C002F003200000100000301060109018C
:1001D00000002200250028002B002E0031003400F2
:1001E00002010000050108010B01000021002400AC
:1001F00027002A002D003000330001010000040117
:1002000007010A01860D120E9E0E2A0F11241FBE31
:10021000CFEFD1E2DEBFCDBF00E00CBF12E0A0E027
:10022000B2E0E0E6FFE100E00BBF02C007900D92F4
:10023000A434B107D9F725E0A4E4B2E001C01D92CF
:10024000AC3AB207E1F711E0C6E0D1E000E006C049
:1002500021970109802FFE010E94A60FC230D1070D
:1002600080E00807A9F740D60C94AE0FC9CE0895D8
:10027000CF92DF92EF92FF92CF93882339F16A01F8
:100280007B01CFEFC80F20E030E0A901CB01B60120
:10029000D9D687FF10C0C701B6019058DCD69B01A4
:1002A000AC016C2F70E090E080E0CF91FF90EF9078
:1002B000DF90CF90AEC0C701B601C8D68C2FCF91CA
:1002C000FF90EF90DF90CF900C94320ACF91FF9087
:1002D000EF90DF90CF9008950F931F938B019C01B7
:1002E00083E036952795179507958A95D1F70C5B8E
:1002F0001D4F462F477021E030E0F90102C0EE0F9C
:10030000FF1F4A95E2F7AF01F80120812423CB01BA
:100310000196211102C090E080E01F910F91089595
:100320000F931F938B019C0183E0369527951795BA
:1003300007958A95D1F7677081E090E001C0880F3A
:100340006A95EAF7F801EC5BFD4F2081452B31F40B
:100350008095822380831F910F910895822BFACF7D
:100360002F923F924F925F926F927F928F929F92C5
:10037000AF92BF92CF92DF92EF92FF920F931F93B3
:10038000CF93DF93D62EC72E782E692E49015A01BE
:10039000280161E08D2D0E946C0BCD2DDC2D8E018E
:1003A0000F5F1F4FA8016D2D7C2D872D962DB8DF77
:1003B00020E030E0A901C201B70141D7181654F47A
:1003C000C201B70148D62B01C501B40144D6A20130
:1003D000CE0123D0C801DF91CF911F910F91FF90E3
:1003E000EF90DF90CF90BF90AF909F908F907F90D5
:1003F0006F905F904F903F902F900895882341F029
:100400008150682F70E090E080E050E040E088CFBD
:100410000895862FB9010C94320A9C01FC01EC511D
:10042000FF4FE491E150E231E0F4F0E08827E45E30
:10043000FD4F8F4F0C94A60F2E02350238024F024B
:1004400064023102790285028902A002B502CA0261
:10045000E102F60231020B032203370384B5806800
:1004600084BD60E0822F0C94A80B84B58062F8CF25
:10047000809180008C7F82608093800080918100D9
:10048000807E8061682B6093810050938700409349
:10049000860080918000806880938000E2CF809108
:1004A00080008C7F82608093800080918100807EBC
:1004B0008061682B60938100509387004093860091
:1004C000809180008062E8CF809180008C7F826084
:1004D0008093800080918100807E8061682B609392
:1004E000810050938700409386008091800088604F
:1004F000D3CF8091B00080688093B0008091B1002C
:10050000887F682B6093B100ACCF8091B00080628F
:10051000F3CF809190008C7F8260809390008091D7
:100520009100807E8061682B6093910050939700CA
:10053000409396008091900080688093900091CFC6
:10054000809190008C7F82608093900080919100D8
:10055000807E8061682B6093910050939700409358
:100560009600809190008062E8CF809190008C7F0F
:1005700082608093900080919100807E8061682BE2
:100580006093910050939700409396008091900063
:100590008860D3CF8091A0008C7F82608093A00080
:1005A0008091A100807E8061682B6093A1005093B0
:1005B000A7004093A6008091A00080688093A000CF
:1005C00050CF8091A0008C7F82608093A0008091AA
:1005D000A100807E8061682B6093A1005093A700EA
:1005E0004093A6008091A0008062E8CF8091A00097
:1005F0008C7F82608093A0008091A100807E8061CA
:10060000682B6093A1005093A7004093A6008091AF
:10061000A0008860D3CF809120018C7F826080937E
:10062000200180912101807E8061682B60932101EF
:100630005093270140932601809120018068809388
:1006400020010FCF809120018C7F82608093200158
:1006500080912101807E8061682B609321015093FD
:10066000270140932601809120018062E8CF80918C
:1006700020018C7F82608093200180912101807E07
:100680008061682B609321015093270140932601DC
:10069000809120018860D3CF611102C00C946C0B53
:1006A0006130E1F362E0FACF662319F061E00C9467
:1006B000A80B60E0FCCF0E94D50B21E0019709F068
:1006C00020E0822F0895CF93DF93EC0189819A81F6
:1006D000AB81BC810197A105B105C1F48D8188234F
:1006E000A9F06A857B858C859D85F6DD998788874D
:1006F00040E050E0BA01BCDD6A857B858C859D8534
:10070000EBDD99878887DF91CF9178CEDF91CF910C
:100710000895FC0191E08091D304811190E09183D0
:100720000895CF92DF92EF92FF926B017C019F7749
:1007300020E030E040E859E585D487FF26C020E07E
:1007400030E040E05FE3C701B60179D587FD0CC01A
:1007500020E030E040E05FE3C701B601FCD3FF904A
:10076000EF90DF90CF90A3C420E030E040E05FEB5B
:10077000C701B60164D518167CF420E030E0A90169
:10078000C701B60160D56B017C01C701B601FF90BE
:10079000EF90DF90CF90089520E030E040E05FE3FD
:1007A000C701B601D7D3FF90EF90DF90CF9037C449
:1007B000CF92DF92EF92FF92CF93DF938091D30499
:1007C0008F5F843608F04AC18093D3046091DE04C1
:1007D0007091DF048091E0049091E1047DDDEC01F3
:1007E0009093DD048093DC04209114023091150273
:1007F00040911602509117026091100270911102FF
:100800008091120290911302A6D320911802309188
:10081000190240911A0250911B0215D56B017C01FF
:1008200020E030E04FE753E40DD487FF1AC120E009
:1008300030E0A901C701B60102D518161CF0C12C81
:10084000D12C7601B701A601CE0112DD6091EC0436
:100850007091ED048091EE049091EF043DDDEC0188
:100860009093EB048093EA042091140230911502D6
:10087000409116025091170260911002709111027E
:10088000809112029091130265D320911C02309145
:100890001D0240911E0250911F02D5D46B017C01B4
:1008A00020E030E04FE753E4CDD387FFE1C020E004
:1008B00030E0A901C701B601C2D418161CF0C12C42
:1008C000D12C7601B701A601CE01D2DCC090000286
:1008D000D0900102E0900202F0900302A70196017D
:1008E00060910405709105058091060590910705BA
:1008F000A9D3882341F0C0920405D0920505E09267
:100900000605F092070589E0D6DEC0900802D09077
:100910000902E0900A02F0900B02A7019601609193
:10092000F8047091F9048091FA049091FB048AD341
:10093000882341F0C092F804D092F904E092FA04BE
:10094000F092FB0488E0B7DE6091200270912102F2
:100950008091220290912302E4DE6B017C0120E071
:1009600030E040E853E46ED36FEF87FF0CC020E027
:1009700030E0A901C701B60162D460E087FD03C081
:10098000C701B60168D384E08FDE609124027091C4
:1009900025028091260290912702C3DE6B017C0123
:1009A00020E030E040E853E44DD36FEF87FF0CC008
:1009B00020E030E0A901C701B60141D460E087FD25
:1009C00003C0C701B60147D385E06EDE60912802FF
:1009D0007091290280912A0290912B02A2DE6B0174
:1009E0007C0120E030E040E853E42CD36FEF87FF38
:1009F0000CC020E030E0A901C701B60120D460E0BE
:100A000087FD03C0C701B60126D382E04DDE6091A9
:100A10002C0270912D0280912E0290912F0281DE86
:100A20006B017C0120E030E040E853E40BD36FEF32
:100A300087FF0CC020E030E0A901C701B601FFD359
:100A400060E087FD03C0C701B60105D383E0DF91F5
:100A5000CF91FF90EF90DF90CF9026CE1092D304ED
:100A6000B5CEC12CD12C9FE7E92E93E4F92EEACE26
:100A7000C12CD12C8FE7E82E83E4F82E23CF0895E4
:100A80002F923F924F925F926F927F928F929F929E
:100A9000AF92BF92CF92DF92EF92FF920F931F938C
:100AA000CF93DF93E8EAF5E0DD24D394D182D082BE
:100AB000C4EDD4E01882E8E1F5E082E3682E6082BC
:100AC00093E3792E7092190524E3222E20921A05C1
:100AD00035E3332E30921B0546E3442E40921C052D
:100AE00057E3552E50921D0588E380931E0589E338
:100AF00080931F0561E3C62EC092200580E380939A
:100B00002105C0922205C0922305C092240560925F
:100B10002505C092260570922705FF83EE838AE0A3
:100B200090E0A0E0B0E08A879B87AC87BD871D82FC
:100B3000812C912C5401839489829A82AB82BC824D
:100B4000E12CF12C8701A80197016AE070E080E0B8
:100B500090E006DC998788876A857B858C859D85F2
:100B6000BBDB9987888783DBDD821E86E8E5F5E0BD
:100B700060827092590520925A0530925B0540922E
:100B80005C0550925D0588E380935E0589E3809360
:100B90005F05C092600580E380936105C0926205A5
:100BA000C0926305C092640560926505C0926605B7
:100BB00070926705FD8BEC8B8BE090E0A0E0B0E0DD
:100BC000888F998FAA8FBB8F1B8A8F86988AA98A54
:100BD000BA8AA80197016BE070E080E090E0C0DB8A
:100BE0009F8B8E8B688D798D8A8D9B8D75DB9F8B0E
:100BF0008E8B3DDBDB8A18A600E012E0F8018081D5
:100C00009181A281B38188AB99ABAAABBBAB89A61A
:100C10009AA6ABA6BCA660E089E03EDDDDA61C8EF0
:100C2000F80180859185A285B3858CA39DA3AEA391
:100C3000BFA38D8E9E8EAF8EB8A260E088E02CDDC3
:100C4000D9A2109288058092890590928A05A09277
:100C50008B05B0928C0561E084E01EDDD0928D059D
:100C6000109290058092910590929205A092930522
:100C7000B092940561E085E00FDDD0929505109269
:100C800098058092990590929A05A0929B05B09242
:100C90009C0561E082E000DDD0929D051092A005E8
:100CA0008092A1059092A205A092A305B092A405FE
:100CB00061E083E0F1DCD092A505DF91CF911F9137
:100CC0000F91FF90EF90DF90CF90BF90AF909F90EB
:100CD0008F907F906F905F904F903F902F900895EE
:100CE0008091D404811106C081E08093D40484ED06
:100CF00094E0E9DC8091E204811106C081E08093F8
:100D0000E20482EE94E0DFDC8091FC04811103C0F8
:100D100081E08093FC048091F004811103C081E0A4
:100D20008093F00480918805811103C081E0809355
:100D3000880580919005811103C081E08093900522
:100D400080919805811103C081E08093980580917E
:100D5000A005811103C081E08093A005089540E8BB
:100D600055E260E070E090E080E000C081309105E5
:100D700071F01CF4892B39F008958230910559F0F7
:100D8000039769F0089526E08CE592E000C626E01E
:100D900089EF92E0FBCF26E086E993E0F7CF26E0EB
:100DA00083E394E0F3CF1F920F920FB60F921124BA
:100DB0000BB60F922F933F934F935F936F937F9355
:100DC0008F939F93AF93BF93EF93FF9386E09FEF33
:100DD000909325018093240134D0FF91EF91BF912E
:100DE000AF919F918F917F916F915F914F913F91C3
:100DF0002F910F900BBE0F900FBE0F901F90189564
:100E000086E09FEF9093250180932401A3E7B0E053
:100E10008C918E7F8C93E0E2F1E080818C7F8083E7
:100E2000E1E2F1E08081877E80838081836080833E
:100E300080818B7F80838C9181608C93089581E089
:100E40000895CF93DF931F921F92CDB7DEB78091A5
:100E50004F0291E0980F90934F02882369F021E0B0
:100E600030E0309352022093510280934F020F9052
:100E70000F90DF91CF910895CE0101964ADC7894CE
:100E800097DCF89480914F02815080934F028A81C1
:100E9000882389F080914E0291E0980F90934E0242
:100EA000882349F021E030E0309352022093510230
:100EB00080934E02DCCF80914E028823C1F2809154
:100EC00050028111D4CF81E0809350027894D7DD15
:100ED000F89480914E02815080934E02809150028E
:100EE000815080935002C3CFCF93DF931092AB0514
:100EF0001092AA0555D233DFC0913002D091310251
:100F000019821882BDDD7CDF81E028813981232BA5
:100F100009F080E08093AA05789478948091AA05DE
:100F2000811107C0DDDEF89490E080E0DF91CF9181
:100F3000089581E028813981232B09F480E0809392
:100F4000AB059091AB0581E0911180E08093AA05FB
:100F500076DFE4CF5058BB27AA270ED01FC110D18F
:100F600030F015D120F031F49F3F11F41EF405C18B
:100F70000EF4E095E7FBD2C0E92F21D180F3BA1738
:100F8000620773078407950718F071F49EF550C146
:100F90000EF4E0950B2EBA2FA02D0B01B901900194
:100FA0000C01CA01A0011124FF27591B99F0593FD8
:100FB00050F4503E68F11A16F040A22F232F342F20
:100FC0004427585FF3CF469537952795A795F0406E
:100FD0005395C9F77EF41F16BA0B620B730B840B83
:100FE000BAF09150A1F0FF0FBB1F661F771F881F3B
:100FF000C2F70EC0BA0F621F731F841F48F4879593
:1010000077956795B795F7959E3F08F0B3CF939581
:10101000880F08F09927EE0F979587950895F1D0DE
:1010200080F09F3740F491110EF403C160E070E04E
:1010300080E89FE3089526F01B16611D711D811D38
:1010400073C08DC047D008F481E0089504D068943F
:10105000B111EFC00895BBD088F09F5790F0B92F21
:101060009927B751A0F0D1F0660F771F881F991FFD
:101070001AF0BA95C9F712C0B13081F0D9D0B1E0F9
:101080000895D6C0672F782F8827B85F39F0B93F09
:10109000CCF3869577956795B395D9F73EF49095FF
:1010A0008095709561957F4F8F4F9F4F0895A9D080
:1010B00080F09F3740F491110EF0BBC060E070E00B
:1010C00080E89FEB089526F41B16611D711D811D9C
:1010D0002BC045C0990F0008550FAA0BE0E8FEEFA2
:1010E00016161706E807F907C0F012161306E407EC
:1010F000F50798F0621B730B840B950B39F40A26E5
:1011000061F0232B242B252B21F408950A2609F4C2
:10111000A140A6958FEF811D811D089597F99F67C6
:1011200080E870E060E00895882371F4772321F06F
:101130009850872B762F07C0662311F499270DC08E
:101140009051862B70E060E02AF09A95660F771F29
:10115000881FDAF7880F9695879597F908959F3F2E
:1011600031F0915020F4879577956795B795880F62
:10117000911D9695879597F908959FEF80EC0895B6
:1011800000240A9416161706180609060895002466
:101190000A9412161306140605060895092E0394E0
:1011A000000C11F4882352F0BB0F40F4BF2B11F454
:1011B00060FF04C06F5F7F4F8F4F9F4F089557FDB3
:1011C0009058440F551F59F05F3F71F04795880FB5
:1011D00097FB991F61F09F3F79F08795089512164C
:1011E00013061406551FF2CF4695F1DF08C01616F8
:1011F00017061806991FF1CF8695710561050894A9
:101200000895E5DFA0F0BEE7B91788F4BB279F3843
:1012100060F41616B11D672F782F8827985FF7CFD7
:10122000869577956795B11D93959639C8F308957E
:10123000E894BB2766277727CB0197F908954ADF03
:1012400008F48FEF08950BD0A9CF9ADF28F09FDF25
:1012500018F0952309F062CF90CF1124EACFAFDFC9
:10126000A0F3959FD1F3950F50E0551F629FF001B9
:10127000729FBB27F00DB11D639FAA27F00DB11D12
:10128000AA1F649F6627B00DA11D661F829F22279B
:10129000B00DA11D621F739FB00DA11D621F839F22
:1012A000A00D611D221F749F3327A00D611D231FF8
:1012B000849F600D211D822F762F6A2F11249F5746
:1012C00050408AF0E1F088234AF0EE0FFF1FBB1F69
:1012D000661F771F881F91505040A9F79E3F510508
:1012E00070F01CCFA6CF5F3FECF3983EDCF3869501
:1012F00077956795B795F795E7959F5FC1F7FE2BB3
:10130000880F911D9695879597F908951F920F92D2
:101310000FB60F9211242F933F938F939F93AF9308
:10132000BF938091540290915502A0915602B091C2
:1013300057023091530223E0230F2D3758F50196C1
:10134000A11DB11D20935302809354029093550226
:10135000A0935602B093570280915802909159027F
:10136000A0915A02B0915B020196A11DB11D80931C
:10137000580290935902A0935A02B0935B02BF9116
:10138000AF919F918F913F912F910F900FBE0F9032
:101390001F90189526E8230F0296A11DB11DD2CFEC
:1013A000789484B5826084BD84B5816084BD85B540
:1013B000826085BD85B5816085BDEEE6F0E0808107
:1013C00081608083E1E8F0E0108280818260808328
:1013D000808181608083E0E8F0E0808181608083AB
:1013E000E1EBF0E0808184608083E0EBF0E08081DD
:1013F00081608083E1E9F0E0808182608083808188
:1014000081608083E0E9F0E0808181608083E1EAAF
:10141000F0E0808182608083808181608083E0EA67
:10142000F0E0808181608083E1E2F1E08081826090
:101430008083808181608083E0E2F1E0808181604F
:101440008083EAE7F0E0808184608083808182602D
:101450008083808181608083808180688083109216
:10146000C10008951F93CF93DF93182FEB0161E024
:1014700033D1209731F460E0812FDF91CF911F911C
:1014800067C1CF3FD10511F461E0F6CFE12FF0E065
:10149000EC51FF4FE491E150E23108F0B2C0F0E0CE
:1014A0008827EB5AF54F8F4F51C5670A6F0A740AA8
:1014B0007E0A880A010B920A9A0AA20AAC0AB60AA4
:1014C000C00ACF0AD90A010BE30AED0AF70A84B56C
:1014D000806884BDC7BDDF91CF911F91089584B509
:1014E000806284BDC8BDF7CF809180008068809302
:1014F0008000D0938900C0938800EDCF8091800058
:10150000806280938000D0938B00C0938A00E3CFE9
:1015100080918000886080938000D0938D00C0937C
:101520008C00D9CF8091B00080688093B000C093C8
:10153000B300D1CF8091B00080628093B000C0939F
:10154000B400C9CF80919000806880939000D093C0
:101550009900C0939800BFCF8091900080628093E3
:101560009000D0939B00C0939A00B5CF80919000DB
:10157000886080939000D0939D00C0939C00ABCF77
:101580008091A00080688093A0008091A0008F7B54
:101590008093A000D093A900C093A8009CCF809115
:1015A000A00080628093A000D093AB00C093AA00FB
:1015B00092CF8091A00088608093A000D093AD006E
:1015C000C093AC0088CF8091200180688093200177
:1015D000D0932901C09328017ECF809120018062A1
:1015E00080932001D0932B01C0932A0174CF809166
:1015F0002001886080932001D0932D01C0932C019D
:101600006ACFC038D1050CF03FCF35CF8150823141
:1016100008F059C0E82FF0E08827EF5EF44F8F4FB5
:1016200095C4310B350B230B290B2D0B630B380B9A
:101630003E0B420B480B4C0B500B560B5A0B630BDB
:101640005E0B640B680B809180008F778093800025
:101650000895809180008F7DF9CF80918000877FF1
:10166000F5CF84B58F7784BD089584B58F7DFBCF8A
:101670008091B0008F778093B00008958091B00082
:101680008F7DF9CF809190008F778093900008959F
:10169000809190008F7DF9CF80919000877FF5CF6A
:1016A0008091A0008F778093A00008958091A00082
:1016B0008F7DF9CF8091A000877FF5CF80912001A9
:1016C0008F77809320010895809120018F7DF9CF3D
:1016D00080912001877FF5CFCF93DF9390E0FC01CD
:1016E000E65DFE4F249180599E4FFC018491882332
:1016F000C9F090E0880F991FFC01E651FE4FA591BB
:10170000B491FC01E053FE4FC591D49161110DC01D
:101710009FB7F8948C91209582238C9388812823FD
:1017200028839FBFDF91CF910895623051F49FB716
:10173000F8943C91822F809583238C93E8812E2B03
:10174000EFCF8FB7F894EC912E2B2C938FBFEACF6D
:101750001F93CF93DF93282F30E0F901EC51FF4F17
:101760008491F901E65DFE4FD491F901E059FE4FF5
:10177000C491CC23A1F0162F811148DFEC2FF0E0AB
:10178000EE0FFF1FE053FE4FA591B4918FB7F89471
:10179000EC91111108C0D095DE23DC938FBFDF914F
:1017A000CF911F910895DE2BF8CFCF93DF93282F91
:1017B00030E0F901EC51FF4F8491F901E65DFE4FF5
:1017C000D491F901E059FE4FC491CC2399F08111D5
:1017D0001DDFEC2FF0E0EE0FFF1FEA54FE4FA59146
:1017E000B491EC91ED2381E090E009F480E0DF9189
:1017F000CF91089580E090E0FACFFC01918D228D89
:10180000892F90E0805C9F4F821B91098F739927ED
:101810000895FC01918D828D981731F0828DE80F2B
:10182000F11D858D90E008958FEF9FEF0895FC01E5
:10183000918D828D981761F0A28DAE0FBF2FB11DD3
:101840005D968C91928D9F5F9F73928F90E008952B
:101850008FEF9FEF0895FC01538D448D252F30E0CD
:10186000842F90E0821B930B541710F0CF960895AD
:1018700001970895FC01A48DA80FB92FB11DA35A9B
:10188000BF4F2C91848D90E001968F739927848FA0
:10189000A689B7892C93A089B1898C9183708064C3
:1018A0008C93938D848D981306C00288F389E02D64
:1018B00080818F7D80830895CF93DF93EC01888DA5
:1018C0008823B1F0AA89BB89E889F9898C9185FDC3
:1018D00003C0808186FD0CC00FB607FCF7CF8C914A
:1018E00085FFF2CF808185FFEDCFCE01C3DFEACF48
:1018F000DF91CF910895EF92FF920F931F93CF93B3
:10190000DF93EC0181E0888F9B8D8C8D98131AC03A
:10191000E889F989808185FF15C09FB7F894EE8921
:10192000FF896083E889F98980818370806480837E
:101930009FBF81E090E0DF91CF911F910F91FF90C9
:10194000EF900895F62E0B8D10E00F5F1F4F0F7371
:101950001127E02E8C8D8E110BC00FB607FCFACF2D
:10196000E889F989808185FFF5CFCE0183DFF2CF49
:10197000EB8DEC0FFD2FF11DE35AFF4FF0829FB767
:10198000F8940B8FEA89FB8980818062D0CFCF9257
:10199000DF92EF92FF921F93CF93DF93EC016A01E6
:1019A0007B01122FE889F98982E08083C11481EEDE
:1019B000D806E104F10499F060E079E08DE390E06D
:1019C000A7019601A1D2215031094109510956952B
:1019D000479537952795211580E1380790F0E889DC
:1019E000F989108260E874E88EE190E0A701960121
:1019F0008BD22150310941095109569547953795A8
:101A00002795EC85FD853083EE85FF852083188E34
:101A1000EC89FD891083EA89FB898081806180835C
:101A2000EA89FB89808188608083EA89FB898081DB
:101A300080688083EA89FB8980818F7D8083DF9144
:101A4000CF911F91FF90EF90DF90CF9008951F925C
:101A50000F920FB60F9211240BB60F922F938F9304
:101A60009F93EF93FF93E0916C02F0916D02808160
:101A7000E0917202F091730282FD1DC0908180910D
:101A800075028F5F8F7320917602821741F0E0918B
:101A90007502F0E0E45AFD4F958F80937502FF9137
:101AA000EF919F918F912F910F900BBE0F900FBED2
:101AB0000F901F9018958081F2CF1F920F920FB652
:101AC0000F9211240BB60F922F933F934F935F9376
:101AD0006F937F938F939F93AF93BF93EF93FF93F6
:101AE0008CE592E0C7DEFF91EF91BF91AF919F919E
:101AF0008F917F916F915F914F913F912F910F90B7
:101B00000BBE0F900FBE0F901F901895ECE5F2E002
:101B10001382128288EE93E0A0E0B0E08483958384
:101B2000A683B78386E392E09183808385EC90E07F
:101B30009587848784EC90E09787868780EC90E097
:101B4000918B808B81EC90E0938B828B82EC90E088
:101B5000958B848B86EC90E0978B868B118E128E02
:101B6000138E148E08951F920F920FB60F921124A8
:101B70000BB60F922F938F939F93EF93FF93E09168
:101B80000903F0910A038081E0910F03F0911003A3
:101B900082FD1DC09081809112038F5F8F73209111
:101BA0001303821741F0E0911203F0E0E750FD4F7C
:101BB000958F80931203FF91EF919F918F912F91B9
:101BC0000F900BBE0F900FBE0F901F901895808145
:101BD000F2CF1F920F920FB60F9211240BB60F92F5
:101BE0002F933F934F935F936F937F938F939F9325
:101BF000AF93BF93EF93FF9389EF92E03BDEFF91AA
:101C0000EF91BF91AF919F918F917F916F915F9174
:101C10004F913F912F910F900BBE0F900FBE0F90E1
:101C20001F901895E9EFF2E01382128288EE93E09C
:101C3000A0E0B0E084839583A683B78386E392E037
:101C4000918380838DEC90E0958784878CEC90E085
:101C50009787868788EC90E0918B808B89EC90E069
:101C6000938B828B8AEC90E0958B848B8EEC90E04A
:101C7000978B868B118E128E138E148E08951F9261
:101C80000F920FB60F9211240BB60F922F938F93D2
:101C90009F93EF93FF93E091A603F091A7038081B8
:101CA000E091AC03F091AD0382FD1DC09081809165
:101CB000AF038F5F8F732091B003821741F0E091E3
:101CC000AF03F0E0EA56FC4F958F8093AF03FF918E
:101CD000EF919F918F912F910F900BBE0F900FBEA0
:101CE0000F901F9018958081F2CF1F920F920FB620
:101CF0000F9211240BB60F922F933F934F935F9344
:101D00006F937F938F939F93AF93BF93EF93FF93C3
:101D100086E993E0AFDDFF91EF91BF91AF919F9185
:101D20008F917F916F915F914F913F912F910F9084
:101D30000BBE0F900FBE0F901F901895E6E9F3E0D1
:101D40001382128288EE93E0A0E0B0E08483958352
:101D5000A683B78386E392E09183808385ED90E04C
:101D60009587848784ED90E09787868780ED90E063
:101D7000918B808B81ED90E0938B828B82ED90E054
:101D8000958B848B86ED90E0978B868B118E128ECF
:101D9000138E148E08951F920F920FB60F92112476
:101DA0000BB60F922F938F939F93EF93FF93E09136
:101DB0004304F09144048081E0914904F0914A0485
:101DC00082FD1DC0908180914C048F5F8F732091A4
:101DD0004D04821741F0E0914C04F0E0ED5CFB4FC4
:101DE000958F80934C04FF91EF919F918F912F914C
:101DF0000F900BBE0F900FBE0F901F901895808113
:101E0000F2CF1F920F920FB60F9211240BB60F92C2
:101E10002F933F934F935F936F937F938F939F93F2
:101E2000AF93BF93EF93FF9383E394E023DDFF91A0
:101E3000EF91BF91AF919F918F917F916F915F9142
:101E40004F913F912F910F900BBE0F900FBE0F90AF
:101E50001F901895E3E3F4E01382128288EE93E07A
:101E6000A0E0B0E084839583A683B78386E392E005
:101E70009183808385E391E09587848784E391E073
:101E80009787868780E391E0918B808B81E391E057
:101E9000938B828B82E391E0958B848B86E391E038
:101EA000978B868B118E128E138E148E0895AF929F
:101EB000BF92CF92DF92EF92FF920F931F93CF9337
:101EC000DF936C017B018B01040F151FEB015E0199
:101ED000AE18BF08C017D10759F06991D601ED912E
:101EE000FC910190F081E02DC6011995892B79F7BD
:101EF000C501DF91CF911F910F91FF90EF90DF907F
:101F0000CF90BF90AF900895A1E21A2EAA1BBB1BE1
:101F1000FD010DC0AA1FBB1FEE1FFF1FA217B307B5
:101F2000E407F50720F0A21BB30BE40BF50B661FCB
:101F3000771F881F991F1A9469F76095709580958F
:101F400090959B01AC01BD01CF010895EE0FFF1FDD
:101F5000881F8BBF0790F691E02D1994F894FFCF5E
:101F60006F12833A000000006F12833A00000000F5
:101F700000009642000000003333234033332340F7
:101F8000000000000000803F000000000000803FD3
:101F9000D004000000007B0C570F2B0C5C0CFD0BD9
:041FA000170C090C05
:00000001FF
